:100000005CC0000082C0000080C000007EC0000014
:100010007CC000007AC0000078C0000076C00000FC
:1000200074C0000072C0000070C000006EC000000C
:100030006CC000000C94682068C0000066C000001E
:100040000C94042462C000000C94A0260C94D226C8
:100050005CC000005AC0000058C0000056C000003C
:1000600054C0000052C0000000000008000201005F
:100070000003040700000000000000000102040863
:100080001020408001020408102001020408102002
:10009000040404040404040402020202020203032E
:1000A0000303030300000000250028002B000000CC
:1000B0000000240027002A00F72611241FBECFEFDE
:1000C000D8E0DEBFCDBF11E0A0E0B1E0E0E9FFE4A1
:1000D00002C005900D92A63CB107D9F723E0A6EC2B
:1000E000B1E001C01D92A33EB207E1F710E0CDE5FB
:1000F000D0E004C02197FE010E949727CC35D1079C
:10010000C9F70E9466210C94C6277ACF611102C0FC
:100110000C940D256130E1F362E0FACF662319F00B
:1001200061E00C94492560E0FCCF90E080E0089508
:100130000F931F93009709F488C06115710509F4A6
:1001400084C0009110011091110120911201309191
:1001500013010E3F1F4F2F4F3F4F09F068C0DB01C7
:100160004D915D916D917C914093100150931101DF
:10017000609312017093130140911001509111018D
:100180006091120170911301DC011296ED91FC91C6
:1001900080819181A281B38180932602909327026E
:1001A000A0932802B093290284819581A681B7810A
:1001B0008093220290932302A0932402B0932502FD
:1001C00080859185A285B38580931E0290931F023E
:1001D000A0932002B093210284859585A685B785DA
:1001E00080931A0290931B02A0931C02B0931D02ED
:1001F0001092160210921702109218021092190211
:100200008FD485EB95E09093C7018093C6019093BE
:10021000C9018093C80173D3009731F421E030E025
:1002200030932B0220932A021F910F910895009181
:100230001001109111012091120130911301FB0165
:10024000008311832283338397CF8FEF9FEFECCF0F
:100250008F929F92AF92BF92CF92DF92EF92FF92D6
:100260001F93CF93DF934B015C0110912D0282E02D
:1002700090E090932B0280932A0281149104A104B0
:10028000B10441F480912D02811104C080912C02AF
:10029000C1E08111C0E0C12CD12C760180912D02EA
:1002A000811106C080912C02811102C0CC23D1F0B3
:1002B00083E090E090932B0280932A02CC2371F18B
:1002C000CCE9DFEF111101C0B4D7CE01DF91CF919E
:1002D0001F91FF90EF90DF90CF90BF90AF909F90D5
:1002E0008F9008956AE070E080E090E00E947324AF
:1002F00080E1C80E87E2D81EE11CF11C8FEF881642
:100300009806A806B80631F0C1E08C149D04AE042E
:10031000BF0408F0C0E080E026D3C0CFD0E0C0E04A
:10032000D1CFCF92DF92EF92FF920F931F93CF9393
:10033000DF938F3F910511F008F050C020912A0201
:1003400030912B022330310539F020912A0230916F
:100350002B022130310531F424E030E030932B02C0
:1003600020932A026A017B01EC0182309105A0F002
:1003700011E0AE01C701B601C1D2AB01BC01CE0193
:100380001123F9F0DF91CF911F910F91FF90EF9022
:10039000DF90CF900C943E0B8C01000F111F0A537D
:1003A0001E4FD8018D919C91892B11F30E94480B0F
:1003B0000297F1F6D801ED91FC91CE010995182F25
:1003C000D8CF0E94600B90E080E0DF91CF911F9129
:1003D0000F91FF90EF90DF90CF9008958FEF9FEFF8
:1003E000F4CF80E0C0C2CF93DF9386E090E090939B
:1003F0002B0280932A0210D3EC01E6ECF1E084E0BA
:10040000DF011D928A95E9F7ACD610922B0210926B
:100410002A02CE01DF91CF91089580912C02089598
:1004200080911502089560931001709311018093DB
:1004300012019093130190E080E00895CF92DF9233
:10044000EF92FF926B017C019F7720E030E040E863
:1004500059E50E94682287FF2BC020E030E040E091
:100460005FE3C701B6010E949D2387FD0EC020E017
:1004700030E040E05FE3C701B6010E94F121FF9048
:10048000EF90DF90CF900C94D52220E030E040E058
:100490005FEBC701B6010E949D23181684F420E08B
:1004A00030E0A901C701B6010E94A1236B017C01C4
:1004B000C701B601FF90EF90DF90CF90089520E044
:1004C00030E040E05FE3C701B6010E94F021FF90F9
:1004D000EF90DF90CF900C9455224F925F926F92E5
:1004E0007F928F929F92AF92BF92CF92DF92EF92C4
:1004F000FF92C090DD03D090DE03E090DF03F09028
:10050000E003C701B6010E949A222B013C01209111
:1005100008013091090140910A0150910B010E949C
:10052000682287FF66C0F7FC64C08090000190904D
:100530000101A0900201B090030120E030E040E80A
:100540005FE3609104017091050180910601909133
:1005500007010E94F0219B01AC01C301B2010E947E
:100560009D2387FD4AC01092DD031092DE03109296
:10057000DF031092E003C501B40160DF6B017C0171
:1005800020E030E040E853E40E9468226FEF87FFEC
:100590000EC020E030E0A901C701B6010E949D23F2
:1005A00060E087FD04C0C701B6010E946C228DE0A7
:1005B000B5DD8091F0019091F101A091F201B0912F
:1005C000F3010196A11DB11D8093F0019093F101FB
:1005D000A093F201B093F301FF90EF90DF90CF90E2
:1005E000BF90AF909F908F907F906F905F904F9053
:1005F0000895812C912C5401A0CF8FEFC81AD80AEE
:10060000E80AF80AC092DD03D092DE03E092DF032D
:10061000F092E003B0CFCF93DF93EAEDF1E080E01A
:1006200090E0A0E2B1E4828F938FA48FB58F8FE228
:1006300098E9A9E8B0E684839583A683B78386EB1F
:100640009CEBA5E5BFE380879187A287B38784E011
:100650009AE1AEEBB2EE84879587A687B78782E9E9
:1006600096EFAEEEBBE1808B918BA28BB38BAEECA1
:10067000B1E0B383A283EAECF1E01196FC93EE9330
:100680008DE291E091838083938382838EEE91E06B
:1006900015969C938E9314978EED91E013969C93F0
:1006A0008E93129744E150E060E070E018964D930D
:1006B0005D936D937C931B97C5EDD3E0188281E029
:1006C00090E0A0E0B0E089839A83AB83BC8361E0D3
:1006D0008DE01CDD81E08D83DF91CF9108958091C5
:1006E000D503811103C081E08093D50308954F9213
:1006F0005F926F927F928F929F92AF92BF92CF92B2
:10070000DF92EF92FF920F931F93F89440900502AF
:10071000509006026090070270900802C090F901A4
:10072000D090FA01E090FB01F090FC01452B09F01C
:10073000A6C09B01AC0124193509460957092901B6
:100740003A010091010210910202209103023091BE
:10075000040248015901840C951CA61CB71C801684
:100760009106A206B306A0F40091FD011091FE01CE
:100770002091FF01309100020F5F1F4F2F4F3F4F1D
:100780000093FD011093FE012093FF0130930002BE
:100790008092010290920202A0920302B09204029F
:1007A0000091FD011091FE012091FF0130910002A6
:1007B0008092090290920A02A0920B02B0920C025F
:1007C00000930D0210930E0220930F02309310023B
:1007D00060930502709306028093070290930802CB
:1007E000A301920160E271EA87E090E00E94522743
:1007F0006C0D7D1D8E1D9F1D6093F9017093FA0194
:100800008093FB019093FC01009110011091110164
:1008100020911201309113010F3F1F4F2F4F3F4F77
:10082000F1F000911001109111012091120130910D
:1008300013010E3F1F4F2F4F3F4F89F0C090100103
:10084000D0901101E0901201F090130121E08C147E
:100850009D04AE04BF0408F420E0209315027894B0
:100860001F910F91FF90EF90DF90CF90BF90AF90CE
:100870009F908F907F906F905F904F9008954B0165
:100880005C0184189508A608B708A3019201261BED
:10089000370B480B590B6415750586059705E0F075
:1008A00082169306A406B50640F420E030E0A901C4
:1008B00081149104A104B104A1F460E271EA87E01B
:1008C00090E00E945227A7019601261B370B480B88
:1008D000590BCA01B901C3CF82169306A406B50607
:1008E00060F7A501940160E271EA87E090E00E9460
:1008F00052276C0D7D1D8E1D9F1DB1CFF8CECF935D
:10090000DF9300D000D0CDB7DEB71C821B821A82E5
:100910001982109211021092120210921302109278
:100920001402BE016F5F7F4FCE0103960E9412201A
:1009300069817A818B819C810E94671A009761F49A
:10094000BE016F5F7F4FCE0103960E941E2069811A
:100950007A818B819C8128D50F900F900F900F90FA
:10096000DF91CF910895FF920F931F93CF93DF9361
:10097000082F60E070E0CB010E947324FF24F39401
:100980000E945219EC01892B89F010E0CE3F8FEFC5
:10099000D80769F0002361F160E070E0CB010E94AC
:1009A000732481E090E0892B59F322C011E01FD518
:1009B000EC01892B21F0CE3F8FEFD80759F71111A9
:1009C0001EC011E0229609F410E00E940319EC0108
:1009D000892B21F0CE3F8FEFD807E1F6111111C01E
:1009E00011E0CE3F8FEFD80709F410E001110BC0E2
:1009F000CE01DF91CF911F910F91FF90089511E0EB
:100A0000E4CF11E0F3CF60E070E0CB010E947324EB
:100A10001F25812F90E0C7CFCF93DF9380911502E0
:100A2000882321F060E070E0CB0148D631D6D0E0D9
:100A3000C0E0892B71F06AE070E080E090E00E94F5
:100A4000732481E090DF24D62196C03727E1D207B6
:100A500081F723D60E94BB1A10922D0210922C020D
:100A60001092260210922702109228021092290258
:100A70001092220210922302109224021092250258
:100A800010921E0210921F02109220021092210258
:100A900010921A0210921B0210921C0210921D0258
:100AA0001092160210921702109218021092190258
:100AB0004EEF5FEF6FEF7FEF409310015093110106
:100AC000609312017093130110921502E9E0F2E0B5
:100AD00028E0DF011D922A95E9F710920502109295
:100AE0000602109207021092080210920102109260
:100AF000020210920302109204021092FD01109261
:100B0000FE011092FF01109200021092F901109262
:100B1000FA011092FB011092FC01DF91CF91089530
:100B20001092390210923A0210923B0210923C024B
:100B300010923802809141029091420290933702C4
:100B400080933602109235021092340210923002D5
:100B500010923102109232021092330210923E0231
:100B600010923D0290E080E00895CF92DF92EF92E4
:100B7000FF920F931F93CF938C01892B09F055C0DF
:100B800020914102309142028091360290913702C9
:100B900040914102509142025093370240933602F5
:100BA0002817390781F01092350210923402109202
:100BB00030021092310210923202109233021092DF
:100BC0003E0210923D0280914102909142020197B3
:100BD00061F580913D0290913E02892B21F4809134
:100BE0001401811112C080913D0290913E02019743
:100BF000E1F48091300290913102A0913202B091E3
:100C000033020197A105B10581F4109230021092D0
:100C1000310210923202109233021092140182E0DB
:100C200090E090933E0280933D028091410290912A
:100C30004202019709F01CC180915702909158021D
:100C40008017910709F014C18091530290915402CA
:100C5000A0915502B0915602009709F409C1209164
:100C6000520221110DC040915302509154026091E3
:100C7000550270915602452B462B472B09F4F8C0BC
:100C800020913D0230913E022230310509F0F0C042
:100C9000209134022111ECC0FC01C080D180E2809F
:100CA000F38080913802882309F4D3C080914402F4
:100CB00090914502892B09F4FDC0209144023091A6
:100CC000450281E02230310509F080E020914402A4
:100CD00030914502C1E02130310549F020914402B4
:100CE00030914502C1E02230310509F0C0E088238F
:100CF00009F456C020914E0230914F0240915002AB
:100D000050915102C701B6010E949D2387FD14C076
:100D100020914E0230914F02409150025091510269
:100D20006091390270913A0280913B0290913C02AD
:100D30000E94682287FD22C020914E0230914F020E
:100D40004091500250915102C701B6010E949D236B
:100D5000181634F520914E0230914F024091500206
:100D6000509151026091390270913A0280913B0298
:100D700090913C020E946822811112C0809146022B
:100D800090914702A0914802B0914902892B8A2B89
:100D90008B2B19F481E08093350281E0809334023B
:100DA000CC2309F456C020914E0230914F0240915D
:100DB000500250915102C701B6010E94682287FF7C
:100DC00014C020914E0230914F0240915002509138
:100DD00051026091390270913A0280913B029091E8
:100DE0003C020E949D2387FF22C020914E02309139
:100DF0004F024091500250915102C701B6010E942A
:100E00006822811126C020914E0230914F024091FC
:100E10005002509151026091390270913A028091D2
:100E20003B0290913C020E949D23181694F48091FD
:100E3000460290914702A0914802B0914902892B45
:100E40008A2B8B2B19F481E08093350281E080930B
:100E5000340281E090913402911180E08093380255
:100E6000C0923902D0923A02E0923B02F0923C02E8
:100E7000012B09F067C180913D0290913E02892BC0
:100E8000D9F4109243021092340280911401882305
:100E900079F082E090E090933E0280933D021092C0
:100EA0001401209141023091420281E0232BE9F0AC
:100EB00080E01BC081E00ACF1092140180914302B0
:100EC000882349F01092350210923E0210923D02A2
:100ED00010924302EDCF8091410290914202892B02
:100EE000E1F0809134021092340220913D02309161
:100EF0003E022230310509F45EC088F42115310527
:100F000009F448C02130310509F4F3C010923502CC
:100F1000109234021092430238C081E0E6CF2330B1
:100F2000310509F4B1C02430310581F74091300218
:100F30005091310260913202709133024115510596
:100F40006105710561F041505109610971094093D2
:100F50003002509331026093320270933302409119
:100F60003002509131026091320270913302452B70
:100F7000462B472BD9F420913F023091400221307B
:100F8000310509F046C01092350210923E021092CF
:100F90003D020CC080911401882341F082E090E072
:100FA00090933E0280933D021092140110922E0203
:100FB00080913502CEC08823C9F38091460290917A
:100FC0004702A0914802B0914902181619061A0664
:100FD0001B060CF07DC08091410290914202019766
:100FE00009F076C08091460290914702A091480294
:100FF000B09149028093300290933102A093320263
:10100000B093330283E090E090933E0280933D02E0
:10101000CDCF40914A0250914B0260914C027091A9
:101020004D02452B462B472BA9F01092350280919B
:101030004A0290914B02A0914C02B0914D028093D4
:10104000300290933102A0933202B093330281E0D8
:1010500090E0DACF882399F08091150190911601E4
:10106000A0911701B0911801809330029093310242
:10107000A0933202B093330284E090E0C5CF109287
:10108000350282E090E0C0CF809130029091310231
:10109000A0913202B09133020097A105B10559F039
:1010A0000197A109B1098093300290933102A09376
:1010B0003202B09333028091300290913102A091BC
:1010C0003202B0913302892B8A2B8B2B09F06ECF21
:1010D0008091150190911601A0911701B09118010E
:1010E000892B8A2B8B2B09F44ECF81E0809335021C
:1010F000B3CF409130025091310260913202709131
:101100003302411551056105710561F041505109E6
:1011100061097109409330025093310260933202A9
:10112000709333024091300250913102609132024B
:1011300070913302452B462B472B09F037CF811195
:10114000C7CF9FCF80912E02882309F431CF8091A1
:101150002F02CF911F910F91FF90EF90DF90CF90D2
:1011600008951092390210923A0210923B021092A6
:101170003C021092380210923E0210923D021092F0
:1011800037021092360210925802109257021092B3
:1011900035021092340210923002109231021092F5
:1011A00032021092330210922F0210922E021092ED
:1011B000530210925402109255021092560210924D
:1011C000520210924E0210924F0210925002109250
:1011D000510288EE93E0A0E0B0E080931501909377
:1011E0001601A0931701B093180110924A021092B1
:1011F0004B0210924C0210924D0210924602109235
:101200004702109248021092490210924502109231
:10121000440281E080931401109243021092420232
:10122000109241021092400210923F0290E080E042
:1012300008958091410290914202892BE1F48091BE
:101240001401882351F080914302811106C081E08E
:1012500080932F0280932E02089580914302882369
:1012600041F080911401811104C010922F0281E09D
:10127000F1CF10922E02089582E090E0FA0191835E
:1012800080838FEF9FEF0895CF93DF93EA0100975C
:1012900011F00E94351B1982188290E080E0DF91E6
:1012A000CF910895DB01009719F48FEF8C93089587
:1012B0002EEF2C9340968031910508F036C0FC014A
:1012C000EC59F64F0C949727930991098F098D09D2
:1012D0008B09890985098709830981097F097C09A7
:1012E000780974097A09950980E311968C93089519
:1012F00089E2FBCF82E2F9CF11961C92089583E236
:10130000F4CF81E2F2CF81E1F0CF87E2EECF8AE243
:10131000ECCF80E1EACF84E2E8CF88E2E6CF86E254
:10132000E4CF81E3E2CF83E3E0CF80E2DECF8091C0
:10133000650290916602089590936602809365021B
:10134000089580916402089590916402892B80939E
:1013500064020895982F9095809164028923809368
:1013600064020895809163020895809161029091D2
:10137000620208956115710559F0FB0130E020E02B
:1013800070E060E02417350719F06115710511F060
:10139000CB010895A081B181A817B90709F4BF0155
:1013A0002F5F3F4F3696EECF8091670281111CC0B0
:1013B00062D268D290935A02809359020E94DD1340
:1013C0000E94EF1390935E0280935D020E946D185D
:1013D0000E94741890935C0280935B0281E080937A
:1013E000670290E080E0089584EF9FEF08958F9268
:1013F0009F92AF92BF92CF92DF92EF92FF920F93A4
:101400001F93CF93DF93CDB7DEB72A970FB6F8942B
:10141000DEBF0FBECDBF1A86198618861F821E82B8
:101420001D821C821B821A8219828091670207EF3B
:101430001FEF882309F49CC08E010D5F1F4F9E0192
:101440002B5F3F4FAE01495F5F4FBE01675F7F4F2C
:1014500090E080E00E94ED198C01009721F0059644
:10146000029708F0DBC029853A852115310509F47A
:1014700002C1ED80FE804B815C81B701640F751F56
:101480008F8198858617970708F4F5C0E20EF31E42
:10149000D7019C91903C09F07FC04230510508F47F
:1014A0007BC011968C914091650250916602452B4C
:1014B00009F49CC0913F08F071C02CE1290F2D3038
:1014C00008F48BC02DE2290F203108F489C0903C2C
:1014D00021F48150823008F483C088E3890F8B3077
:1014E00008F481C092E5C92E99E0D92EECE3F9E029
:1014F0006D817E81AE014F5F5F4F89859A85099529
:101500005C01C114D104A1F189809A8081149104F5
:1015100079F18B819C818815990508F487C010E0CA
:1015200000E04B815C8170E060E0C7010E94BF2752
:1015300001151105E9F449815A8169857A858D8102
:101540009E81680F791FC501F6010995E980FA802F
:101550000D811E812F81388549855A856FEF7FEF78
:1015600081E090E00E9489198C01892B09F056C016
:10157000C8012A960FB6F894DEBF0FBECDBFDF912B
:10158000CF911F910F91FF90EF90DF90CF90BF9080
:10159000AF909F908F90089580E085CF30E020E05D
:1015A000220F331FF901E75AFD4F0190F081E02D22
:1015B000309709F497CF892F90E00995009709F4A7
:1015C00091CFDC011296ED91FC9113971496CD907A
:1015D000DC90309709F08CCF1FC021E030E0E0CFE5
:1015E00022E030E0DDCF23E030E0DACFD12CC12C97
:1015F000E4E4F9E09F3F09F07BCFE0915902F091DC
:101600005A02309721F4C90104EF1FEF0CC08FEF8D
:1016100090E009950097A9F604EF1FEF89859A8558
:10162000009709F4A5CF0E94351BA2CF0E94B61ADD
:101630008C0189859A850E94351B70E060E0C401A9
:101640000E944F1A98878F830E9486199E838D83EC
:101650006F8178856115710559F0C8010E94581C89
:101660009A87898706EF1FEF892B09F058CF59CF4A
:1016700008EF1FEF56CF08EF1FEFD0CF2091670282
:10168000222319F020E00C94F41387EF9FEF0895C4
:10169000809165029091660208950E9479180E94D7
:1016A000D317F5D0E9E5F2E088E0DF011D928A95D5
:1016B000E9F71092670290E080E008950C943016EC
:1016C00021E040E050E0BA010C94F41386E090E091
:1016D000FA019183808390E080E0089547E050E034
:1016E00060E371E047CEDF92EF92FF920F931F937A
:1016F000CF93DF938A01EC01C60FD71FE0906B02F6
:10170000F0906C02D9800E949E1AD816190678F0C3
:1017100082E090E0F801918380838EEF9FEFDF916C
:10172000CF911F910F91FF90EF90DF900895EF28D8
:1017300041F482E090E0F8019183808384EF9FEF91
:10174000EECF898180936A0290E00196F80191833F
:10175000808390E080E0E3CFCF93DF93EA010E94A3
:10176000E116882321F00E94AB1A0E94E21682E063
:1017700090E0998388838BEF9FEFDF91CF9108955D
:10178000CF93DF93EB0186E0FB0111928A95E9F795
:101790008FEF8883D6DD8983E5DD8A83E6DD9D834F
:1017A0008C83DF91CF910895CF93DF93EA010E945C
:1017B000E416811109C082E090E09983888385EF67
:1017C0009FEFDF91CF91089590E080E0B5DD81E05B
:1017D00090E09983888390E080E0F3CF0F931F938C
:1017E000CF93DF93EA018C01060F171F0E94E416C6
:1017F00081110BC082E090E09983888385EF9FEF91
:10180000DF91CF911F910F910895F801818182306E
:1018100038F082E090E0998388838EEF9FEFF0CFDD
:1018200081E090E089DD88E090E09983888390E012
:1018300080E0E6CFCF93DF930097D1F4EB01FB017B
:10184000329686E0DF011D928A95E9F78FEF888353
:1018500085E089831A820E949E1A8B830E949D1ABA
:101860009D838C8381E08E838F83DF91CF91089558
:10187000DF91CF9117CD8EE69BE090936902809324
:10188000680208958091680290916902089510920B
:10189000690210926802089580916B0290916C0227
:1018A0000895411105C0611571058105910561F02B
:1018B00060936B0270936C0280936D0290936E0242
:1018C00040936F0281E0089580E00895FF920F93A6
:1018D0001F93CF93DF938A01EC01C60FD71FF980C6
:1018E0000E949E1AF816190668F082E090E0F8014E
:1018F000918380838EEF9FEFDF91CF911F910F91A6
:10190000FF9008956C817D818E819F814B81C9DF1D
:10191000811108C082E090E0F8019183808384EF18
:101920009FEFEACF898180936A0290E00196F801E7
:101930009183808390E080E0DFCFCF93DF93EA0153
:10194000FC01E60FF71F64817581868197814381D1
:10195000A8DF811109C082E090E09983888384EF39
:101960009FEFDF91CF91089581E090E09983888384
:1019700090E080E0F6CFEBE6F2E0408151816281B9
:101980007381480F511D611D711D40835183628316
:1019900073830895CF93C0916A024C2F50E06091F9
:1019A0006B0270916C0201960E94B6278C2FE3DFC8
:1019B00010926A02CF910895009799F480916B027A
:1019C00090916C022FEFFB012083892B59F020911D
:1019D0006A0230E02F5F3F4F2417350719F4CB011F
:1019E000D9CF60CC0895009799F480916B029091C3
:1019F0006C022FEFFB012083892B59F020916A02A2
:101A000030E02F5F3F4F2417350719F4CB01C2CFC9
:101A100049CC089523E1AC01249FC001259F900D7E
:101A20001124E0917402F0917502E80FF91F2381EF
:101A300034812250310981E02230310508F080E004
:101A400008950F931F93CF93DF9300917602109127
:101A50007702D0E0C0E080E00C171D0749F491E068
:101A6000811190E0892FDF91CF911F910F910895FF
:101A70008111F5CFCE01CEDF2196EECFA091740279
:101A8000B0917502109729F120917602309177027A
:101A900082179307F0F453E1589F9001599F300D3E
:101AA0001124A20FB31FED91FC911197309789F08B
:101AB00012968C91681768F48DE0689FE00DF11D17
:101AC000112480819181892B21F081E09281491735
:101AD00008F080E008959C0143E1429FC001439FCC
:101AE000900D1124E0917402F0917502E80FF91F36
:101AF0008385823091F481E090E065817681409128
:101B0000190150911A016417750711F490E080E0F3
:101B1000892B19F081E0232B09F080E00895FC0166
:101B2000A081B1818DE0689FA00DB11D1124139695
:101B30004D915C9185859685489F9001499F300D18
:101B4000589F300D1124C9010196611103C04781CE
:101B500044FD04960895EF92FF920F931F93CF9345
:101B6000DF93EA01FC01E60FF71F02811381E48095
:101B7000F5804F2D6E2DC80181DF81110DC082E0EF
:101B800090E0998388838EEF9FEFDF91CF911F9133
:101B90000F91FF90EF900895C8013CDF882339F042
:101BA00082E090E09983888388EF9FEFEECF1093D7
:101BB000200100931F01E0922101F092220181E0B7
:101BC00090E09983888390E080E0DFCFCF92DF922E
:101BD000EF92FF920F931F93CF93DF937A01EC0163
:101BE000C60FD71FC0901F01D09020010091210186
:101BF00010912201412F602FC60140DF811110C0DA
:101C000082E090E0F701918380838AEF9FEFDF917C
:101C1000CF911F910F91FF90EF90DF90CF9008959B
:101C2000C601F8DE882341F082E090E0F70191835D
:101C3000808388EF9FEFEBCF4C815D816E817F8148
:101C40009A8189818F3F41F082E090E0F701918392
:101C500080838EEF9FEFDBCFE3E1EC9D9001ED9D64
:101C6000300D1124E0917402F0917502E20FF31F20
:101C70000190F081E02D2DE0029FE00DF11D112477
:101C80000190F081E02D27E0129FE00DF11D11245D
:101C9000808391838B81828343835483658376839E
:101CA0001F5F1093220181E090E0F7019183808310
:101CB00090E080E0ACCFEF92FF920F931F93CF9311
:101CC000DF937A018C01060F171FC0917402D09127
:101CD0007502209781F021E030E0F8018281938144
:101CE00040917602509177028417950710F030E00A
:101CF00020E0232B71F482E090E0F7019183808350
:101D00008EEF9FEFDF91CF911F910F91FF90EF909A
:101D1000089543E1489F9001499F300D1124C20F5F
:101D2000D31F78DE882341F082E090E0F7019183B1
:101D3000808388EF9FEFE6CFF8012481358120383A
:101D40003105C8F687818111D6CF4181842F90E07B
:101D50008F7E009741F082E090E0F70191838083CD
:101D600086EF9FEFCFCF4F833E832D832681288739
:101D70001986223010F421E0288721E030E0F701B5
:101D800031832083BFCF88E090E0FA019183808384
:101D900090E080E00895FB018FEF808381E18183F3
:101DA0008FEF9FEF9383828380E890E09583848315
:101DB000168217820895FB018FEF808391E0918353
:101DC00082839383848384E3858381E090E0978397
:101DD0008683089582E090E0FA019183808380EF0A
:101DE0009FEF0895DF92EF92FF920F931F93CF938F
:101DF000DF93EA01FC01E60FF71F8181813071F06A
:101E000082E090E0998388838FEF9FEFDF91CF91FD
:101E10001F910F91FF90EF90DF9008958281938141
:101E2000D4802581E680F7800091740210917502BC
:101E30000115110539F482E090E0998388838CEFD5
:101E40009FEFE4CF40917602509177028417950777
:101E500038F082E090E0998388838EEF9FEFD6CFB1
:101E6000892B39F082E090E09983888386EF9FEF99
:101E7000CDCF8D2D8D7FB1F72130A1F781E0D1102D
:101E800006C091E0E916F10431F080E004C0E2E020
:101E9000EE16F104D0F3882329F390E080E0BADD58
:101EA000882339F082E090E09983888388EF9FEF60
:101EB000ADCFF801D38681E08487F686E586108A67
:101EC000178681E090E09983888390E080E09ECF40
:101ED0004DE050E06AE571E04DCA8F929F92BF924B
:101EE000CF92DF92EF92FF920F931F93CF93DF93E6
:101EF000EA01FC01E60FF71F828193810481B5801E
:101F0000E0917402F0917502309791F482E090E0D4
:101F1000998388838CEF9FEFDF91CF911F910F9171
:101F2000FF90EF90DF90CF90BF909F908F9008959B
:101F300020917602309177028217930738F082E081
:101F400090E0998388838EEF9FEFE6CF23E1289F6F
:101F50006001299FD00C1124EC0DFD1DE080F18063
:101F6000E114F10499F28281081748F78DE0089F87
:101F700080011124E00EF11EF70180819181892BEF
:101F800029F6BB20E1F2F7E0BF9E40011124C40115
:101F90000E94321BF70191838083E0917402F091DB
:101FA0007502EC0DFD1D0190F081E02DE00FF11F99
:101FB00080819181009739F482E090E09983888351
:101FC0008DEF9FEFA9CFA40170E060E00E94BF27D2
:101FD0008091740290917502C80ED91EF60180811D
:101FE0009181080F191FF801B28281E090E0998376
:101FF000888390E080E090CFAF92BF92CF92DF9243
:10200000FF920F931F93CF93DF93EA01FC01E60F3A
:10201000F71F82819381F480009174021091750200
:102020000115110581F482E090E0998388838CEF9B
:102030009FEFDF91CF911F910F91FF90DF90CF9095
:10204000BF90AF9008952091760230917702821769
:10205000930738F082E090E0998388838EEF9FEFBA
:10206000E8CF2FEF2F0D2C3FA8F723E1289F600129
:10207000299FD00C11240C0D1D1DF8018081918128
:10208000892B89F6FDE0FF9E50011124C5010E94B5
:10209000321BF80191838083E0917402F091750204
:1020A000EC0DFD1D80819181009739F482E090E074
:1020B000998388838DEF9FEFBCCFA50170E060E02E
:1020C0000E94BF27E0917402F0917502EC0DFD1D96
:1020D000F28281E090E09983888390E080E0A9CF4C
:1020E000CF92DF92EF92FF920F931F93CF93DF93E4
:1020F000860F971FFC0102811381809174029091D9
:102100007502892B81F082E090E0FA01918380834F
:102110008CEF9FEFDF91CF911F910F91FF90EF9088
:10212000DF90CF900895C801B0E0A0E00197A10929
:10213000B1098F3F9F4FA105B10540F082E090E0CB
:10214000FA01918380838EEF9FEFE4CF7A0183E1E0
:10215000809F6001819FD00C1124C6010E94321B18
:10216000EC01009741F482E090E0F70191838083D5
:102170008DEF9FEFCFCFA60170E060E00E94BF27F8
:10218000D0937502C0937402109377020093760285
:1021900090E080E02FEF3FEF41E061E070E08017DA
:1021A000910741F481E090E0F7019183808390E012
:1021B00080E0B0CF3A8B298B1B864C877E876D875A
:1021C000188A1F8601966396EACFEF92FF921F93BB
:1021D000CF93DF93EC0110E0F12CE12C6A8116170C
:1021E000A8F070E0660F771FAE014F5E5F4FC7012A
:1021F0000E945F1B009721F02FEF3FEF3A8B298B56
:10220000DF91CF911F91FF90EF900895612FCE0144
:1022100086DC61E070E00E944F1AE816F90608F4C7
:102220007C011F5FDBCFF894209172023091730222
:1022300081E02115310509F080E0232B09F0789425
:1022400008952F923F924F925F926F927F928F925A
:102250009F92AF92BF92CF92DF92EF92FF920F9335
:102260001F93CF93DF933C01660E771EF3018281AB
:1022700093814C01B12CA12CC0917402D0917502B4
:10228000209769F021E030E060917602709177024A
:102290008617970710F030E020E0232BD1F482E07E
:1022A00090E0FA01918380838EEF9FEFDF91CF91D1
:1022B0001F910F91FF90EF90DF90CF90BF90AF9064
:1022C0009F908F907F906F905F904F903F902F9056
:1022D00008958092230190922401A0922501B0924A
:1022E000260163E1689F9001699F300D1124C20FA0
:1022F000D31FF3018181833040F082E090E0FA0146
:102300009183808386EF9FEFD1CF2A012B813C817F
:10231000232BF1F4288139819F8191FF2EC0232B3B
:1023200009F46FC0209179029A81422F490F5527F5
:10233000551FBA0141E050E06138710514F050E0DA
:1023400040E0452B09F45DC02A87920F90937902F3
:102350008150823008F481C066DF882309F4D8C038
:10236000F3018181813009F48DC008F47BC0823093
:1023700009F4C6C090E080E0ADC0232B09F441C051
:10238000209178029A81E22FE90FFF27FF1F41E099
:1023900050E0ED3FF10514F050E040E0452B89F1AD
:1023A0002A87920F90937802D3CFA081B181A20F98
:1023B000B31F11966C91060F111D0196295F3F4FB7
:1023C0008417950794F38D859E85089F1001099FBA
:1023D000300C189F300C1124C114D104D1F48F811A
:1023E00084FF17C00E949D1AF5E02F0E311C21E0DA
:1023F0008215930508F420E0A701435F5F4F211188
:102400000EC082E090E0F2019183808387EF9FEF1E
:102410004DCF0E949D1A2FEF221A320AE8CF8881F1
:102420009981E80EF91EF70114830383FFEFCF1A99
:10243000DF0A7A018A818C151D0409F00CF48CCF17
:10244000E881F981EE0DFF1D428150E030E020E08F
:1024500010E000E090E080E0B3CFF12CE12CD12C33
:10246000C12CE8CF81E090E09C838B83EADA88235B
:1024700009F480CF81E090E00E949C0980E40E94F2
:10248000AA0978CF89899A89019661F083E090E062
:102490009C838B8382E090E00E949C0980E40E94F0
:1024A000A40968CF8D819E812091190130911A0174
:1024B00082179307D1F460911D0170911E01AE0146
:1024C0004F5E5F4F80911B0190911C010E94171C71
:1024D0000097E1F2789422E030E0F201318320832A
:1024E000892B99F08DEF9FEFE1CE89288A288B28E0
:1024F00069F6892B59F6CE0168DE188A1F86E8CF67
:1025000082E090E09C838B8335CF90E080E0CECE5C
:1025100082E090E0F2019183808385EF9FEFC6CE49
:102520008F929F92AF92BF92CF92DF92EF92FF92E3
:102530000F931F93CF93DF93EA018C01060F171FB0
:10254000F8018181833098F082E090E0998388835C
:1025500086EF9FEFDF91CF911F910F91FF90EF904A
:10256000DF90CF90BF90AF909F908F900895809113
:10257000740290917502892B61F081E090E02091C6
:10258000760230917702232B11F490E080E0892BC2
:1025900039F482E090E0998388838EEF9FEFDACF61
:1025A00042DE882309F4DFC0F8018181813009F41B
:1025B00095C0E8F0823099F420917602309177024C
:1025C000E0917402F091750290E080E041E050E00B
:1025D0002817390709F0BDC034DA811117C0789483
:1025E00081E090E09983888390E080E0B3CF2091F0
:1025F000760230917702E0917402F091750290E0DA
:1026000080E041E050E02817390741F481E090E094
:102610000E949C0980E40E94AA09E1CF6381748131
:10262000672B11F05483438301967396ECCFE091AE
:102630007402F0917502E00FF11F23813481223082
:102640003105D9F4218932892F3F3F4FB1F42581DB
:1026500036814091190150911A012417350761F50F
:10266000AF014F5E5F4F60911D0170911E0180911F
:102670001B0190911C010E94171CEFEFCE1ADE0A7D
:10268000EE0AFE0A0D5E1F4F4091760250917702CE
:1026900070E060E0C416D506E606F7063CF5009744
:1026A00031F27894892B09F49BCF82E090E09983F2
:1026B00088838DEF9FEF4ECFC114D104E104F10464
:1026C000E1F6232BD1F6CF0180DDE0917402F09189
:1026D0007502E00FF11F108A1786CFCF10E000E0DF
:1026E00090E080E0C12CD12C7601CECF0097C9F6C6
:1026F00010E000E0812C912C540183E0E82EF12CB5
:102700001AC0E0917402F0917502E00FF11F83810D
:102710009481029749F4F482E38282E090E00E947F
:102720009C0980E40E94A409FFEF8F1A9F0AAF0A58
:10273000BF0A0D5E1F4F8091760290917702B0E044
:10274000A0E088169906AA06BB06DCF290E080E0BD
:10275000A8CF638174816230710511F4548343837F
:102760000196739635CF82E090E09983888385EF58
:102770009FEFF0CE0097B9F48FEFFB01808320919B
:1027800023013091240143E1429FC001439F900DFA
:102790001124E0917402F0917502E80FF91F82850F
:1027A000FB01818308950C94520988E090E0FA01BE
:1027B0009183808390E080E00895109273021092DC
:1027C0007202E4E7F2E086E0DF011D928A95E9F704
:1027D00088E69FE090937102809370020895809143
:1027E00070029091710208952F923F924F925F92E2
:1027F0006F927F928F929F92AF92BF92CF92DF9211
:10280000EF92FF920F931F93CF93DF93CDB7DEB775
:102810002F970FB6F894DEBF0FBECDBFF894E091AE
:102820007202F09173023196F0937302E093720298
:10283000789440907402509075024114510409F448
:102840000CC2E0917602F0917702EF2B09F405C2F9
:102850002D8749875A876B877C8798878F831201DA
:10286000B12CA12C10E000E08091760290917702CB
:10287000A816B90618F40115110529F1F8948091EC
:102880007202909173020197909373028093720287
:102890007894C8012F960FB6F894DEBF0FBECDBF57
:1028A000DF91CF911F910F91FF90EF90DF90CF902C
:1028B000BF90AF909F908F907F906F905F904F9060
:1028C0003F902F9008957101E418F508D1011796F3
:1028D0008C91179781FD54C013968D919C911497FC
:1028E000039709F04DC015968D919C91EF81F88565
:1028F0008E179F0709F044C0B50190E080E07ED4B8
:102900008A8320917402309175023D832C833D852A
:10291000332309F44CC04C815D81452B09F49AC1E5
:102920008091760290917702A816B90608F092C1BC
:10293000C501D1D88823E9F06C817D816E0D7F1DA2
:102940007D836C83DB011F968D919C91892B89F08F
:10295000D12CC12CF12CE12CAC81BD8112968C9133
:1029600012978E151F0409F094F450961C921E9233
:102970001F972A81222321F0B50190E080E040D406
:102980003FEFA31AB30A43E1240E311C6DCFAC8193
:10299000BD81ED91FC91EC0DFD1D8581968165D683
:1029A000BFEFEB1AFB0AEDE0CE0ED11CD5CFEC81C8
:1029B000FD81309709F44EC18091760290917702A3
:1029C000A816B90608F046C1EE0DFF1DFF87EE8779
:1029D000C50181D88B83882339F1AE85BF851F96C9
:1029E0008D919C915097019621E01D964D915C919F
:1029F0008417950709F020E02E831982712C10E0CE
:102A000000E0AE85BF8512968C91781608F45DC003
:102A1000EE85FF85878590890196658576850E947C
:102A20006127908B8787A5CFB1E0BE83E6CF99243D
:102A300093946BC017D6F6019683858382C0D60126
:102A4000ED90FC90B7E06B9EE00CF11C1124F701B7
:102A50006381748180818F3F61F121E030E002C0A9
:102A6000220F331F8A95E2F7C901092E000CAA0B29
:102A7000BB0BFB01408151816281738184239523CB
:102A8000A623B72321E0892B8A2B8B2B09F420E086
:102A9000D4012C93D70111968C91F60123853485AE
:102AA000820F932F911D880E991E148613866394AE
:102AB0009BC0418150E0C4010E94B627EBCF9982B0
:102AC00006EF1FEFC5C01982C3C0F981F111A0CF75
:102AD000EDE07E9E70011124AE85BF85CD90DC9027
:102AE000CE0CDF1C13D49D838C83BB81BB2309F4E4
:102AF0009ECF81E0EE85FF8527853089232B09F065
:102B000080E0982E882309F458C0672D8E859F8514
:102B100006D8D60118969C938E93179761E070E0C3
:102B2000BED4EE85FF85218932892F3F320709F413
:102B300081CFBC01C901BCD6D60116969C938E9359
:102B40001597D60115968D919C911697009709F4CB
:102B5000B6CFEC81FD818E0F9F1F1A969C938E93AA
:102B60001997AE85BF85ED91FC911197EE0EFF1E72
:102B7000F70121853285148613861A968C91870D6C
:102B8000D9018D93711016C0EE85FF85878184FF72
:102B900011C049855A856B857C85F9014183528333
:102BA00063837483F701838594850496A80FB91F06
:102BB00014861386F701B287A187D60115968D91E9
:102BC0009C911697892B09F443C0EE85FF852581DA
:102BD00036818091190190911A012817390779F0EF
:102BE00019968D909C90612CD60112968C9112971B
:102BF000681608F424CF1A969C928E921997BE817B
:102C0000BB2309F460CF61E070E0F6018781908515
:102C100046D4D6011796ED90FC90189715964D91D5
:102C20005C91E1E0F0E0BA81BB2311F0F0E0E0E07C
:102C30000C811D819C01B501882799278E1B9F0B54
:102C400068D38C01892B21F0F601858196810DD501
:102C50007394D7CE0FEF1FEF8CCE10E000E00ECEB6
:102C60002F923F924F925F926F927F928F929F929C
:102C7000AF92BF92CF92DF92EF92FF920F931F938A
:102C8000CF93DF93809174029091750210E000E081
:102C9000892BA9F0C8DA0AEF1FEF882381F0209072
:102CA000760230907702C0917402D0917502D12CD7
:102CB000C12C10E000E02C143D04A9F47894C80164
:102CC000DF91CF911F910F91FF90EF90DF90CF9008
:102CD000BF90AF909F908F907F906F905F904F903C
:102CE0003F902F900895C6010E946B0D882309F133
:102CF0008B819C810397E9F48F859889892BC9F092
:102D0000B60190E080E07AD221E030E0882311F033
:102D100030E020E044245524421A530AB12CA12C5F
:102D2000912C812C8A818815190409F038F4188AAD
:102D30001F864FEFC41AD40A6396BDCFE881F9818C
:102D4000EA0DFB1D85819681892BA1F161E070E080
:102D500087819085A4D33C01D9D28C01E881F98187
:102D6000EA0DFB1D8185928525813681200F311F5B
:102D7000AC01421B530B9A0147815085421B530BF8
:102D800070E060E00E94BF27E881F981EA0DFB1D39
:102D9000E780F084458156819301B601C201B9D222
:102DA0008C01892B39F0E881F981EA0DFB1D8581C1
:102DB00096815BD45FEF851A950A8DE0A80EB11C51
:102DC000B1CF31CA789408952F923F924F925F927B
:102DD0006F927F929F92AF92BF92CF92DF92EF92CB
:102DE000FF920F931F93CF93DF9300D000D000D0BA
:102DF000CDB7DEB7009174021091750299249394B7
:102E00000115110509F43EC0A0907602B09077023A
:102E10000ADA982E8823B1F110927502109274028A
:102E20001092770210927602109278021092790234
:102E30008FEF9FEFDC018093230190932401A093F7
:102E40002501B093260178947AD31E830D83C12C7B
:102E5000D12C7601C501B0E0A0E089839A83AB83D1
:102E6000BC8322242A94322C89819A81AB81BC8133
:102E7000C816D906EA06FB06F4F0C801F6D380E4CA
:102E80000E94AA09892D26960FB6F894DEBF0FBEC0
:102E9000CDBFDF91CF911F910F91FF90EF90DF9009
:102EA000CF90BF90AF909F907F906F905F904F902A
:102EB0003F902F900895AD81BE8115968D919C9184
:102EC00016972091190130911A0182179307D1F4B6
:102ED00051968D919C91DAD4ED81FE818081918112
:102EE000B12CA12C412C512C3201892B89F5BFEF3B
:102EF000CB1ADB0AEB0AFB0AED81FE817396FE8397
:102F0000ED83B2CFC114D104E104F10429F7892B78
:102F100019F7ED81FE81818992898F3F980709F029
:102F200057D4AD81BE8152963C922E925197D4CF08
:102F30008A0D9B1DDC018D919C91009709F095D322
:102F4000BFEF4B1A5B0A6B0A7B0AEDE0AE0EB11CB9
:102F5000AD81BE818D919C91119712964C9150E05C
:102F600070E060E044165506660677060CF37DD3E4
:102F7000BECFCF93DF93EA0127DF811109C082E042
:102F800090E09983888385EF9FEFDF91CF9108953B
:102F900081E090E00E949C0981E090E09983888321
:102FA00090E080E0F2CF10DF109271021092700278
:102FB000089542E050E068EA71E00C94BA09FF928B
:102FC0000F931F93CF93DF938A01EC01C60FD71F96
:102FD000F980B4D20897F816190671F068F082E00B
:102FE00090E0F801918380838EEF9FEFDF91CF9186
:102FF0001F910F91FF9008956C817D818E819F813B
:103000004B810E94510C811108C082E090E0F801D0
:103010009183808384EF9FEFE9CFF9800E944C0C6D
:103020004F2D50E0BE01685F7F4F0E94B627898117
:103030000E94BB0C81E090E0F8019183808390E0D6
:1030400080E0D4CFDF92EF92FF920F931F93CF9344
:10305000DF938A01EC01C60FD71F0E944C0C7C0144
:10306000D9806CD2DD2059F0029721E030E0D816EB
:10307000190619F010F030E020E0232B79F482E0FB
:1030800090E0F801918380838EEF9FEFDF91CF91E5
:103090001F910F91FF90EF90DF900895EF2841F47A
:1030A00082E090E0F8019183808384EF9FEFEECF80
:1030B000F9800E944C0C4F2D50E0BE016E5F7F4F97
:1030C0000E94B62789810E94BB0C81E090E0F80144
:1030D0009183808390E080E0D9CF89ED97E1909350
:1030E0007B0280937A02089580917A0290917B020C
:1030F00008950895FC0111821082938382830895BC
:10310000DB011D921C92DC011296ED91FC9113974C
:103110007183608313967C936E9312970895FC01DC
:1031200080819181DB018D939C93A081B181109767
:1031300041F08D919C9191838083892B11F4F383CD
:10314000E2830895FC0180819181DB018D939C9342
:10315000892B11F473836283718360830895FC016A
:1031600011821082938382830895CF93DF9300D0DE
:10317000CDB7DEB71A821982F894BE016F5F7F4F18
:1031800081E892E0CCDF89819A81009709F06DD2C5
:1031900089819A81892B89F7BE016F5F7F4F85E80E
:1031A00092E0BDDF89819A81009709F05ED2898122
:1031B0009A81892B89F778940F900F90DF91CF91A6
:1031C0000895CF93DF9300D0CDB7DEB71A8219826E
:1031D000F894BE016F5F7F4F8DE792E0A0DF898199
:1031E0009A81009709F041D289819A81892B89F7C8
:1031F00078940F900F90DF91CF91089581E008951A
:1032000090E080E00895EF92FF920F931F93CF9389
:10321000DF9300D0CDB7DEB71A82198280917C028D
:1032200007EF1FEF8823A1F1F894BE016F5F7F4F76
:1032300085E892E074DF789489819A81EE24E394A2
:10324000F12C892B51F4F894BE016F5F7F4F81E818
:1032500092E065DF7894F12CE12C89819A810EEF60
:103260001FEF0097A9F0FC014281538164E070E0F8
:103270000DD58C01892B61F0F89469817A81C701A1
:10328000880F991F880F991F8F579D4F5BDF789488
:10329000C8010F900F90DF91CF911F910F91FF9078
:1032A000EF9008950F931F93CF93DF9300D000D03A
:1032B000CDB7DEB71C821B821A82198280917C02F4
:1032C00007EF1FEF8823C1F0AE014D5F5F4F64E051
:1032D00070E0CE0101964DD58C01892B69F4E9810E
:1032E000FA818B819C8193838283F89469817A81AE
:1032F0008DE792E005DF7894C8010F900F900F9052
:103300000F90DF91CF911F910F91089552D604969F
:1033100008958F929F92AF92BF92CF92DF92EF92D9
:10332000FF920F931F93CF93DF9300D0CDB7DEB7FB
:103330001A821982BC016F5F7F4F6330710598F06C
:10334000AA24AA94BA2CC5010F900F90DF91CF91B7
:103350001F910F91FF90EF90DF90CF90BF90AF90B3
:103360009F908F9008954115510551F348015901DF
:103370008A016C01CBDF8815990511F7E114F1047E
:10338000F9F28E0D9F1DA816B906D0F280917C022D
:103390008823F1F0F894B501645071099701AE01EA
:1033A0004F5F5F4FC801049679D55C01892B71F49A
:1033B00089819A81F80193838283C601880F991FBE
:1033C000880F991FB8018F579D4F9ADE7894BBCF15
:1033D00087EFA82EBB24BA94B6CFAF92BF92CF92FC
:1033E000DF92EF92FF920F931F93CF93DF9300D062
:1033F000CDB7DEB71A821982892B09F047C0611553
:10340000710509F443C04115510509F43FC0211568
:10341000310509F43BC001151105C1F180917C0211
:103420008823B9F179016A015B01F894BE016F5FED
:103430007F4F8DE792E073DE789489819A810097BF
:1034400059F1DC0112966D917C91A80104963FD54B
:103450008C01E981FA81D501ED93FC9382819381FE
:103460000496F6019183808351DFD7018D939C935D
:10347000C8010F900F90DF91CF911F910F91FF9096
:10348000EF90DF90CF90BF90AF9008950FEF1FEFB8
:10349000EFCF07EF1FEFECCF0EEF1FEFE9CFCF938A
:1034A000DF93EC01672B71F48DD58C179D0760F0CD
:1034B00080D52496C80FD91F7FD58C0F9D1FDF9113
:1034C000CF9108957CD5F1CF90E080E0F8CF0F93B5
:1034D0001F93CF93DF9320917C0221112BC08B018E
:1034E000EC0181E892E006DE85E892E003DE8DE7FC
:1034F00092E000DE97D00097C1F464D570E060E000
:10350000CEDF47E251E062E070E0D9D0009769F485
:10351000809127019091280167D5B801CE019CD3F5
:10352000009719F421E020937C02DF91CF911F9145
:103530000F91089584EF9FEFF8CF41C543C5CF9316
:10354000DF9343D5EC01892B11F40FDE3ADECE0177
:10355000DF91CF910895CF93DF9337D5EC01892B7D
:1035600009F403DECE01DF91CF9108958091270108
:10357000909128010895CF93DF9380917C02D0E051
:10358000C0E08823D1F035D5EC01892BB1F4EDDD15
:1035900018DE80912701909128011AD1CED1EC013B
:1035A000892B59F481E892E0DADD85E892E0D7DDF5
:1035B0008DE792E0D4DD10927C02CE01DF91CF91B5
:1035C0000895EF92FF920F931F93CF93DF93EC0137
:1035D0007A018B010F5F1F4F0E9DA0010F9D500DB3
:1035E0001E9D500D112470E060E00E94BF2790E006
:1035F00080E0F0E0E0E02FEFE816F90639F4DF9123
:10360000CF911F910F91FF90EF9008951A82198228
:103610002883309711F0D283C1830196FE01C00F39
:10362000D11FEACFEBE8F2E085E8DF011D928A9531
:10363000E9F710928A0210928902E7E1F3E0118221
:1036400010821582148213821282178216821186CA
:103650001086E3E1F3E0118210821382128290E07F
:1036600080E0089590E080E00895009739F1DC0152
:103670008E91813041F4E0911503F091160330975B
:10368000E9F0CD010994811119C0F8948FEF8C9362
:10369000809117039091180312969C938E93119723
:1036A000B0931803A09317038091190390911A0304
:1036B000019690931A038093190378940895EF92DA
:1036C000FF920F931F93CF93DF934115510509F498
:1036D0007CC0009709F479C06115710509F475C0C3
:1036E000EA01AB01BC01F894809117039091180393
:1036F000892B19F58EE892E08C7F6D5F7F4F6C7F90
:103700009B012F5F3F4F249F8001259F100D349F09
:10371000100D112420911F03309120032115310534
:1037200009F03CC0E0908902F0908A0222E830E083
:103730002E193F092017310730F478942FEF3FEF0F
:1037400086EF9FEF22C09093180380931703509346
:103750001C0340931B0350931A0340931903709367
:103760001E0360931D031093200300931F03009713
:1037700009F027DF0E0D1F1D10938A0200938902A6
:10378000789430E020E090E080E039832883DF9176
:10379000CF911F910F91FF90EF900895201731075F
:1037A00060F2909318038093170350931C03409387
:1037B0001B0350931A034093190370931E036093E5
:1037C0001D030097E9F2FDDEDBCF8FEF9FEFDFCF28
:1037D000892B51F5F8941092180310921703109248
:1037E0001C0310921B0310921A03109219031092DB
:1037F0001E0310921D0320911F03309120032115F9
:10380000310571F08091890290918A02821B930B9D
:1038100090938A02809389021092200310921F03D2
:10382000789490E080E008958FEF9FEF0895411520
:10383000510549F1009739F16115710521F1F894AD
:103840002091130330911403232BB9F42091150315
:1038500030911603232B89F4909314038093130360
:103860007093160360931503789421E030E090E0A4
:1038700080E0FA0131832083089578942FEF3FEFA1
:1038800086EF9FEFF6CF8FEF9FEF0895019769F4D2
:10389000F8941092140310921303109216031092CE
:1038A0001503789490E080E008958FEF9FEF0895DE
:1038B0006115710519F4F0E0E0E011C08130910567
:1038C00081F4E0911303F09114033097A1F3CB013D
:1038D00001960995009779F3FC0181E08193CF016E
:1038E0000895892B41F78091170390911803892B34
:1038F00011F380911D0390911E0386179707D8F24C
:10390000F8948091190390911A03009731F0E09197
:103910001703F0911803309711F47894CCCF2181DC
:1039200032813093180320931703019790931A0361
:103930008093190311927894D2CFE0E1F3E083E011
:10394000DF011D928A95E9F7EBE8F2E085E8DF01F7
:103950001D928A95E9F710928A0210928902E7E196
:10396000F3E08AE0DF011D928A95E9F7E3E1F3E0F5
:1039700084E0DF011D928A95E9F790E080E00895E8
:10398000CF93DF93C0912901D0912A01CF3FDC076B
:1039900059F4FBD390932A018093290197FF09C022
:1039A000D0932A01C093290184EF9FEFDF91CF913B
:1039B000089590E080E0FACF8230910528F480935A
:1039C000210390E080E008958FEF9FEF08954F92DC
:1039D0005F926F927F92AF92BF92CF92DF92EF92FF
:1039E000FF920F931F93CF93DF9300D0CDB7DEB735
:1039F0001A821982009709F478C06115710509F4DB
:103A000074C02091290130912A0107EF1FEF2F3F49
:103A10003F4F09F444C06B015C01412C512C320131
:103A2000F12CE12C10E000E09E012F5F3F4FA6013A
:103A30004E195F09B5016E0D7F1D8091290190918E
:103A40002A0102D4892B09F04AC089819A81009702
:103A500041F4E114F10429F420912103222309F413
:103A600041C0E80EF91EEC14FD04C8F480E84816C5
:103A700084E858068EE16806710418F560E070E08D
:103A8000CB0131D72AE0420E511C611C711C0A3F48
:103A90004FEF140721F0043F8FEF1807A1F4C8017E
:103AA0000F900F90DF91CF911F910F91FF90EF90AA
:103AB000DF90CF90BF90AF907F906F905F904F90CE
:103AC000089501EF1FEF81E090E0013F2FEF120713
:103AD00011F090E080E0892B09F4A6CFE0CF04EF4D
:103AE0001FEFDDCF0AEF1FEFDACF0FEF1FEFD7CFBA
:103AF0004F925F926F927F92AF92BF92CF92DF927E
:103B0000EF92FF920F931F93CF93DF9300D0CDB727
:103B1000DEB71A821982009709F478C06115710521
:103B200009F474C02091290130912A0107EF1FEF99
:103B30002F3F3F4F09F444C06B015C01412C512CD5
:103B40003201F12CE12C10E000E09E012F5F3F4F8D
:103B5000A6014E195F09B5016E0D7F1D80912901E7
:103B600090912A0127D3892B09F04AC089819A8133
:103B7000009741F4E114F10429F420912103222358
:103B800009F441C0E80EF91EEC14FD04C8F480E409
:103B9000481682E458068FE06806710418F560E064
:103BA00070E0CB01A0D62AE0420E511C611C711CB2
:103BB0000E3F4FEF140721F0043F8FEF1807A1F4D9
:103BC000C8010F900F90DF91CF911F910F91FF903F
:103BD000EF90DF90CF90BF90AF907F906F905F900D
:103BE0004F90089502EF1FEF81E090E0023F2FEF2A
:103BF000120711F090E080E0892B09F4A6CFE0CF06
:103C000004EF1FEFDDCF0EEF1FEFDACF0FEF1FEF47
:103C1000D7CF8091290190912A018F3F980749F0D1
:103C2000ACD2892B49F48FEF9FEF90932A018093B8
:103C3000290190E080E0089584EF9FEF0895FC0152
:103C4000680F791F90E080E0E617F70709F4089500
:103C50002191820F911DF8CF20912203211113C0D1
:103C60008FDE009791F41092280310922703109290
:103C7000260310922503109224031092230321E0BF
:103C800020932203089584EF9FEF0895AF92BF928F
:103C9000CF92DF92EF92FF920F931F93CF93DF9318
:103CA000009709F460C04630510508F45CC02091CB
:103CB0002203C7EFDFEF222309F449C08C01060F6E
:103CC000171FF801C080D180C114D10409F44EC07F
:103CD00096012A5F3F4F4217530708F447C07C0103
:103CE000809127039091280393838283B6016C5FB0
:103CF0007F4F5801A60EB71EC801A1DFF5019183C1
:103D0000808364E070E0C80162DEEC01892BF9F485
:103D100081E090E051DEB601C801049658DEEC0166
:103D2000892B91F462E070E0C50151DEEC01892B32
:103D300059F4C7019ADC80912703909128030196DA
:103D4000909328038093270390E080E035DECE0136
:103D5000DF91CF911F910F91FF90EF90DF90CF9067
:103D6000BF90AF900895CFEFDFEFF1CFC9EFDFEF56
:103D7000EECF6F927F928F929F92AF92BF92CF922F
:103D8000DF92EF92FF920F931F93CF93DF9300D0B8
:103D900000D0CDB7DEB7009709F47AC041155105C0
:103DA00009F476C02091220307EF1FEF222309F4C4
:103DB0004DC03A017B015C0164E070E0CE010196E8
:103DC00097DE8C01892B09F041C009811A81011508
:103DD000110509F45AC0480186E0880E911CB7010C
:103DE000680D791D80912B0190912C0161DD6C0192
:103DF000009709F450C0A70170E060E00E94BF275F
:103E000089819A81AB81BC81EC0CFD1CF701819307
:103E10009193A193B1937F0181E090E0CDDDB80152
:103E2000C70166DE892B31F562E070E0C701800FC3
:103E3000911F5EDE8C01892BE9F490E080E0BCDD0F
:103E4000F501D182C082F30191828082C8010F9076
:103E50000F900F900F90DF91CF911F910F91FF90D6
:103E6000EF90DF90CF90BF90AF909F908F907F901A
:103E70006F90089590E080E09FDDF501118210823F
:103E8000F30111821082C601F0DB09EF1FEFDECFD4
:103E90000FEF1FEFDBCF06EF1FEFD8CF0097A1F09A
:103EA0004115510589F02115310571F0F90136965A
:103EB0006E177F0748F0DC012D933C93DA01ED93F8
:103EC000FC9390E080E008958FEF9FEF0895AF920C
:103ED000BF92CF92DF92EF92FF920F931F93CF93F7
:103EE000DF93009709F45FC04115510509F45BC0E9
:103EF0006530710508F457C020912203C7EFDFEF4A
:103F0000222391F1DC01CD90DC9011971296ED9176
:103F1000FC9196012A5F3F4FC9EFDFEF2617370765
:103F200019F5C0912303D0912403209749F521E08E
:103F300030E030932403209323037A018C01F09323
:103F40002603E09325035601B4E0AB0EB11CB50186
:103F500076DE0A0D1B1DF80120813181821793073F
:103F600029F5D701CD92DC92CE01DF91CF911F913F
:103F70000F91FF90EF90DF90CF90BF90AF9008959A
:103F800020912503309126032F5F3F4FCCEFDFEFC9
:103F9000E217F30790F2CBEFDFEF2E173F0768F23F
:103FA000D0E0C0E0CACFCFEFDFEFDECFC3EFDFEF6F
:103FB000DBCF84E090E0089582E090E008958CEFFC
:103FC0009FEF089580E290E00895109228031092E8
:103FD00027031092260310922503109224031092B7
:103FE000230390E080E0089590932C0180932B01AF
:103FF000089580912203882391F00BDE009789F4C5
:104000001092280310922703109226031092250382
:10401000109224031092230310922203089590E03B
:1040200080E00895009749F06115710531F0FC01B9
:1040300011821082FB01118210820895F3CF08953E
:1040400026E030E040E855E260E070E090E080E09B
:1040500000C010922A031092290389309105E0F4E0
:104060008C5C9F4DFC0163C73D2046204D205020B5
:104070005320562059205C20622081E090E09093EC
:104080002A038093290388E393E0FAC582E090E055
:1040900090932A0380932903089584E090E0F8CF59
:1040A00088E090E0F5CF80E190E0F2CF80E290E010
:1040B000EFCF80E490E0ECCF80E890E090932A038B
:1040C000809329038091290390912A039160E0CF86
:1040D0001F920F920FB60F9211242F933F934F937D
:1040E0005F936F937F938F939F93AF93BF93EF9360
:1040F000FF938EEE95E89093850080938400B7D06F
:10410000FF91EF91BF91AF919F918F917F916F91AF
:104110005F914F913F912F910F900FBE0F901F9085
:1041200018958EEE95E89093850080938400AFE615
:10413000B0E08C918E7F8C93E0E8F0E080818C7F02
:104140008083E1E8F0E08081877E808380818460E5
:10415000808380818C7F80838C9181608C93089593
:10416000EFE6F0E0808190819E7F908381700895DA
:1041700081E0089510922B03089568EE73E080E0CB
:1041800090E0B1D390E080E0089526E030E040E098
:1041900052EC61E070E090E080E05BDF88E393E068
:1041A000A5D4892B21F088E393E0BAD4F7CF90E02F
:1041B00080E00895CF92DF92EF92FF920F931F93CA
:1041C000CF93DF936B017A01E9011982188288E3AA
:1041D00093E08CD4892B69F18601CC24C39482E0CE
:1041E000D82E80912B03811110C088E393E098D4DE
:1041F0000297B9F7C0922B03F801D1928F01888101
:104200009981019699838883ECCF888199818E1555
:104210009F0578F488E393E083D48F3F9807A9F350
:10422000F80181938F018881998101969983888310
:10423000ECCF90E080E0DF91CF911F910F91FF9044
:10424000EF90DF90CF9008950F931F93CF93DF935C
:10425000EA01890188E393E0F7D5F801D183C083AF
:1042600090E080E0DF91CF911F910F910895CF9260
:10427000DF92EF92FF9280912C0391E0980F909340
:104280002C03882369F021E030E030932E03209343
:104290002D0380932C03FF90EF90DF90CF90089533
:1042A0007894E0912E01F0912F01C688D788E08C98
:1042B000F18C0E946D02B701A60190E080E00E949F
:1042C0009101F89480912C038150E3CF0F931F93B9
:1042D000CF93DF931092E2031092E1033AD3B0DE62
:1042E000C0912E01D0912F011982188264E170E0F3
:1042F00080E090E00E94130270E060E090E080E0D7
:104300000E949500009709F03AC00E940B03F894B0
:1043100078948A819B81BC01685F7F4F0E949800DE
:10432000892B59F46FEF7FEFCB010E9428010E9487
:104330000D02882311F081E08E8FF894F2DE0E9446
:104340001002882311F080E008C00E940D02811144
:10435000FACF81E09E8D9111F6CF8093E10378949E
:104360000E9497098C0178948091E10381110CC01F
:104370000E946F030E94F301F89490E080E0DF91C7
:10438000CF911F910F9108950E94F1010E94100298
:104390008823E1F081E08093E2039091E20381E0E1
:1043A000911180E08093E1038091E2038111D8DED6
:1043B0000130110529F40E949709892B09F4DADEEE
:1043C0000E9497098C01D4DE3ADECECF0E940D0206
:1043D0008111E0CF81E09E8D9111DDCF80E0DBCFB8
:1043E0005058BB27AA270ED057C148D130F04DD125
:1043F00020F031F49F3F11F41EF43DC10EF4E0951E
:10440000E7FB0AC1E92F59D180F3BA176207730796
:104410008407950718F071F49EF588C10EF4E095B5
:104420000B2EBA2FA02D0B01B90190010C01CA016E
:10443000A0011124FF27591B99F0593F50F4503E19
:1044400068F11A16F040A22F232F342F4427585F0B
:10445000F3CF469537952795A795F0405395C9F723
:104460007EF41F16BA0B620B730B840BBAF09150DB
:10447000A1F0FF0FBB1F661F771F881FC2F70EC07A
:10448000BA0F621F731F841F48F48795779567954D
:10449000B795F7959E3F08F0B3CF9395880F08F036
:1044A0009927EE0F97958795089529D180F09F372A
:1044B00040F491110EF43BC160E070E080E89FE3AE
:1044C000089526F01B16611D711D811DABC0C5C06E
:1044D0007FD008F481E00895F8D088F09F5790F0DD
:1044E000B92F9927B751A0F0D1F0660F771F881F19
:1044F000991F1AF0BA95C9F712C0B13081F016D1E0
:10450000B1E0089513C1672F782F8827B85F39F07D
:10451000B93FCCF3869577956795B395D9F73EF477
:1045200090958095709561957F4F8F4F9F4F08951F
:10453000E89409C097FB3EF490958095709561953D
:104540007F4F8F4F9F4F9923A9F0F92F96E9BB27F3
:104550009395F695879577956795B795F111F8CF6F
:10456000FAF4BB0F11F460FF1BC06F5F7F4F8F4FDA
:104570009F4F16C0882311F096E911C0772321F0D0
:104580009EE8872F762F05C0662371F096E8862F68
:1045900070E060E02AF09A95660F771F881FDAF7BF
:1045A000880F9695879597F90895A9D080F09F3741
:1045B00040F491110EF0BBC060E070E080E89FEB2A
:1045C000089526F41B16611D711D811D2BC045C069
:1045D000990F0008550FAA0BE0E8FEEF1616170614
:1045E000E807F907C0F012161306E407F50798F07C
:1045F000621B730B840B950B39F40A2661F0232B95
:10460000242B252B21F408950A2609F4A140A69510
:104610008FEF811D811D089597F99F6780E870E0F5
:1046200060E00895882371F4772321F09850872B58
:10463000762F07C0662311F499270DC09051862B61
:1046400070E060E02AF09A95660F771F881FDAF70E
:10465000880F9695879597F908959F3F31F091506F
:1046600020F4879577956795B795880F911D969556
:10467000879597F908959FEF80EC089500240A9498
:104680001616170618060906089500240A9412162D
:104690001306140605060895092E0394000C11F460
:1046A000882352F0BB0F40F4BF2B11F460FF04C00D
:1046B0006F5F7F4F8F4F9F4F089557FD9058440F66
:1046C000551F59F05F3F71F04795880F97FB991F71
:1046D00061F09F3F79F0879508951216130614062E
:1046E000551FF2CF4695F1DF08C0161617061806BB
:1046F000991FF1CF86957105610508940895E5DF4E
:10470000A0F0BEE7B91788F4BB279F3860F41616EF
:10471000B11D672F782F8827985FF7CF86957795FB
:104720006795B11D93959639C8F30895E894BB2712
:1047300066277727CB0197F908954ADF08F48FEFB2
:1047400008950BD0A9CF9ADF28F09FDF18F09523AA
:1047500009F062CF90CF1124EACFAFDFA0F3959F8D
:10476000D1F3950F50E0551F629FF001729FBB2758
:10477000F00DB11D639FAA27F00DB11DAA1F649F04
:104780006627B00DA11D661F829F2227B00DA11DB7
:10479000621F739FB00DA11D621F839FA00D611D3D
:1047A000221F749F3327A00D611D231F849F600D5E
:1047B000211D822F762F6A2F11249F5750408AF097
:1047C000E1F088234AF0EE0FFF1FBB1F661F771F23
:1047D000881F91505040A9F79E3F510570F01CCFA3
:1047E000A6CF5F3FECF3983EDCF38695779567950F
:1047F000B795F795E7959F5FC1F7FE2B880F911D41
:104800009695879597F908951F920F920FB60F927C
:1048100011242F933F938F939F93AF93BF938091D6
:10482000300390913103A0913203B0913303309162
:104830002F0323E0230F2D3758F50196A11DB11D3D
:1048400020932F038093300390933103A09332037E
:10485000B09333038091340390913503A0913603D4
:10486000B09137030196A11DB11D8093340390933D
:104870003503A0933603B0933703BF91AF919F9157
:104880008F913F912F910F900FBE0F901F90189511
:1048900026E8230F0296A11DB11DD2CF3FB7F89491
:1048A0008091340390913503A0913603B091370382
:1048B00026B5A89B05C02F3F19F00196A11DB11D7B
:1048C0003FBFBA2FA92F982F8827BC01CD01620FB7
:1048D000711D811D911D42E0660F771F881F991F72
:1048E0004A95D1F708958F929F92AF92BF92CF923F
:1048F000DF92EF92FF926B017C01D0DF4B015C01F4
:10490000C114D104E104F104D9F0CBD2C7DF681996
:1049100079098A099B09683E73408105910580F3F6
:1049200021E0C21AD108E108F10888EE880E83E080
:10493000981EA11CB11CC114D104E104F10431F78B
:10494000FF90EF90DF90CF90BF90AF909F908F90AF
:104950000895789484B5826084BD84B5816084BDF7
:1049600085B5826085BD85B5816085BDEEE6F0E0E8
:10497000808181608083E1E8F0E010828081826044
:104980008083808181608083E0E8F0E080818160C5
:104990008083E1EBF0E0808184608083E0EBF0E0F5
:1049A000808181608083EAE7F0E080818460808399
:1049B0008081826080838081816080838081806843
:1049C00080831092C1000895833081F028F48130F3
:1049D00099F08230A9F008958730A9F08830C9F0A5
:1049E0008430B1F4809180008F7D03C0809180007D
:1049F0008F7780938000089584B58F7784BD089564
:104A000084B58F7DFBCF8091B0008F778093B0000D
:104A100008958091B0008F7DF9CFCF93DF9390E020
:104A2000FC01E458FF4F249180579F4FFC01849173
:104A30008823C9F090E0880F991FFC01E255FF4FD1
:104A4000A591B491FC01EC55FF4FC591D491611132
:104A50000DC09FB7F8948C91209582238C93888108
:104A6000282328839FBFDF91CF910895623051F4AE
:104A70009FB7F8943C91822F809583238C93E88193
:104A80002E2BEFCF8FB7F894EC912E2B2C938FBF5A
:104A9000EACF1F93CF93DF93282F30E0F901E85935
:104AA000FF4F8491F901E458FF4FD491F901E05789
:104AB000FF4FC491CC23A1F0162F811185DFEC2F7D
:104AC000F0E0EE0FFF1FEC55FF4FA591B4918FB7AB
:104AD000F894EC91111108C0D095DE23DC938FBFC0
:104AE000DF91CF911F910895DE2BF8CFFC01918DBE
:104AF000228D892F90E0805C9F4F821B91098F73DC
:104B000099270895FC01918D828D981731F0828D3F
:104B1000E80FF11D858D90E008958FEF9FEF0895C8
:104B2000FC01918D828D981761F0A28DAE0FBF2F81
:104B3000B11D5D968C91928D9F5F9F73928F90E0D7
:104B400008958FEF9FEF0895FC01538D448D252F1D
:104B500030E0842F90E0821B930B541710F0CF9617
:104B6000089501970895FC01A48DA80FB92FB11DD8
:104B7000A35ABF4F2C91848D90E001968F73992793
:104B8000848FA689B7892C93A089B1898C91837071
:104B900080648C93938D848D981306C00288F3896A
:104BA000E02D80818F7D80830895CF93DF93EC018A
:104BB000888D8823B1F0AA89BB89E889F9898C910D
:104BC00085FD03C0808186FD0CC00FB607FCF7CFC2
:104BD0008C9185FFF2CF808185FFEDCFCE01C3DFC1
:104BE000EACFDF91CF910895EF92FF920F931F9339
:104BF000CF93DF93EC0181E0888F9B8D8C8D981390
:104C00001AC0E889F989808185FF15C09FB7F8949B
:104C1000EE89FF896083E889F989808183708064E7
:104C200080839FBF81E090E0DF91CF911F910F9132
:104C3000FF90EF900895F62E0B8D10E00F5F1F4F41
:104C40000F731127E02E8C8D8E110BC00FB607FC51
:104C5000FACFE889F989808185FFF5CFCE0183DF1E
:104C6000F2CFEB8DEC0FFD2FF11DE35AFF4FF082D9
:104C70009FB7F8940B8FEA89FB8980818062D0CF3F
:104C8000CF92DF92EF92FF921F93CF93DF93EC01CD
:104C90006A017B01122FE889F98982E08083C114BF
:104CA00081EED806E104F10499F060E079E08DE34B
:104CB00090E0A701960119D121503109410951090C
:104CC0005695479537952795211580E1380790F03F
:104CD000E889F989108260E874E88EE190E0A70124
:104CE000960103D121503109410951095695479543
:104CF00037952795EC85FD853083EE85FF852083EC
:104D0000188EEC89FD891083EA89FB898081806196
:104D10008083EA89FB89808188608083EA89FB89B6
:104D2000808180688083EA89FB8980818F7D808390
:104D3000DF91CF911F91FF90EF90DF90CF9008957A
:104D40001F920F920FB60F9211242F938F939F9360
:104D5000EF93FF93E0914803F09149038081E09144
:104D60004E03F0914F0382FD1BC09081809151034F
:104D70008F5F8F7320915203821741F0E0915103AE
:104D8000F0E0E85CFC4F958F80935103FF91EF9129
:104D90009F918F912F910F900FBE0F901F9018959C
:104DA0008081F4CF1F920F920FB60F9211242F9390
:104DB0003F934F935F936F937F938F939F93AF93A3
:104DC000BF93EF93FF9388E393E0CDDEFF91EF91E4
:104DD000BF91AF919F918F917F916F915F914F9113
:104DE0003F912F910F900FBE0F901F901895E8E301
:104DF000F3E01382128288EE93E0A0E0B0E08483B7
:104E00009583A683B78388EB91E09183808385ECBB
:104E100090E09587848784EC90E09787868780EC84
:104E200090E0918B808B81EC90E0938B828B82EC75
:104E300090E0958B848B86EC90E0978B868B118E1F
:104E4000128E138E148E0895AF92BF92CF92DF927E
:104E5000EF92FF920F931F93CF93DF936C017B012F
:104E60008B01040F151FEB015E01AE18BF08C017C0
:104E7000D10759F06991D601ED91FC910190F08133
:104E8000E02DC6010995892B79F7C501DF91CF91F6
:104E90001F910F91FF90EF90DF90CF90BF90AF9058
:104EA00008950895DB018F939F9347D0BF91AF91F1
:104EB000A29F800D911DA39F900DB29F900D112474
:104EC0000895AA1BBB1B51E107C0AA1FBB1FA61751
:104ED000B70710F0A61BB70B881F991F5A95A9F7A3
:104EE00080959095BC01CD010895A1E21A2EAA1BD0
:104EF000BB1BFD010DC0AA1FBB1FEE1FFF1FA2178A
:104F0000B307E407F50720F0A21BB30BE40BF50B86
:104F1000661F771F881F991F1A9469F7609570950F
:104F2000809590959B01AC01BD01CF010895EE0FD6
:104F3000FF1F0590F491E02D099409D0A59F900DD5
:104F4000B49F900DA49F800D911D11240895A29FE0
:104F5000B001B39FC001A39F700D811D1124911D4D
:104F6000B29F700D811D1124911D0895FB01DC017C
:104F700002C001900D9241505040D8F70895DC01D5
:104F800001C06D9341505040E0F70895F894FFCF71
:104F90000000803F000000400000803F0000000053
:104FA000FEFFFFFF01E8030000FFFF00000000FF1D
:104FB000FFFFFFFFFFFFFFFFFFFFFFFFFF01DA0122
:104FC000FF00EE0B1A0CFE00D40B5209FD00660B1D
:104FD000C00BFC00AC0B5209F6009D0C5209F50009
:104FE000730BDC0CF400660CF30CDE002111BA1319
:104FF000DD0090125209DA00C30ECB0ED900D51392
:10500000DB0EE200AB0D5209E100E60D5209E000B3
:105010005B0E5209D600B9175209D500701052091B
:10502000D400FC0F5209D3006D0F5209DC00EA0EC8
:105030005209C000F20E5209F00022185209ED0088
:10504000DF17520900000000F4252427A425D525E8
:0650500076259025822563
:00000001FF
