:1000000052C0000078C0000076C0000074C000003C
:1000100072C0000070C000006EC000006CC0000024
:100020006AC0000068C0000066C0000064C0000034
:1000300062C000000C94B6215EC000005CC00000ED
:100040000C94BC2358C000000C941D260C944F2621
:1000500052C0000050C000004EC000004CC0000064
:100060004AC0000048C0000001020408102040807F
:1000700001020408102001020408102004040404F2
:100080000404040402020202020203030303030342
:1000900000000000250028002B00000000002400C4
:1000A00027002A00742611241FBECFEFD8E0DEBF40
:1000B000CDBF11E0A0E0B1E0ECE6FEE402C00590A7
:1000C0000D92A63CB107D9F724E0A6ECB1E001C03F
:1000D0001D92AA3CB207E1F710E0C3E5D0E004C0EE
:1000E0002197FE010E940527C235D107C9F70E945A
:1000F00006230C94342784CFCF93DF93882349F0D1
:10010000EB0181500E949C2499838883DF91CF91D9
:100110000895FB0111821082F9CF0F931F938B0179
:100120009C0183E036952795179507958A95D1F719
:100130000A531E4F462F477021E030E0F90102C0FC
:10014000EE0FFF1F4A95E2F7AF01F801208124234B
:10015000CB010196211102C090E080E01F910F9128
:1001600008950F931F938B019C0183E0369527958B
:10017000179507958A95D1F7677081E090E001C0E7
:10018000880F6A95EAF7F801EA53FE4F2081452B64
:1001900031F48095822380831F910F910895822BE3
:1001A000FACFCF92DF92EF92FF92CF93DF936B0162
:1001B0007C0160E08EE0C816D104E104F10490F403
:1001C0008EE08C0D0E94B724E6012196AE01C70196
:1001D000B601C7DFCE01DF91CF91FF90EF90DF90A6
:1001E000CF9008958C2DEECF882341F08150682F59
:1001F00070E090E080E050E040E0B3CF089590E000
:1002000080E008950F931F93009709F488C061154B
:10021000710509F484C0009102011091030120913D
:100220000401309105010E3F1F4F2F4F3F4F09F042
:1002300068C0DB014D915D916D917C91409302010D
:1002400050930301609304017093050140910201F2
:10025000509103016091040170910501DC01129637
:10026000ED91FC9180819181A281B38180933502CF
:1002700090933602A0933702B0933802848195811F
:10028000A681B7818093310290933202A09333020A
:10029000B093340280859185A285B38580932D0229
:1002A00090932E02A0932F02B093300284859585FF
:1002B000A685B7858093290290932A02A0932B02EA
:1002C000B0932C021092250210922602109227025F
:1002D0001092280216D486EA95E09093D00180937C
:1002E000CF019093D2018093D101FAD2009731F4DB
:1002F00021E030E030933A02209339021F910F91B0
:1003000008950091020110910301209104013091A0
:100310000501FB01008311832283338397CF8FEF85
:100320009FEFECCF8F929F92AF92BF92CF92DF92CE
:10033000EF92FF921F93CF93DF934B015C011091DB
:100340003C0282E090E090933A028093390281145B
:100350009104A104B10441F480913C02811104C0D4
:1003600080913B02C1E08111C0E0C12CD12C76010B
:1003700080913C02811106C080913B02811102C034
:10038000CC23D1F083E090E090933A02809339023D
:10039000CC2371F1CCE9DFEF111101C03BD7CE01C5
:1003A000DF91CF911F91FF90EF90DF90CF90BF90A2
:1003B000AF909F908F9008956AE070E080E090E0A9
:1003C0000E942B2480E1C80E87E2D81EE11CF11C9C
:1003D0008FEF88169806A806B80631F0C1E08C1495
:1003E0009D04AE04BF0408F0C0E080E0ADD2C0CFF1
:1003F000D0E0C0E0D1CFCF92DF92EF92FF920F9387
:100400001F93CF93DF938F3F910511F008F050C0F9
:100410002091390230913A022330310539F0209190
:10042000390230913A022130310531F424E030E0D4
:1004300030933A02209339026A017B01EC01823049
:100440009105A0F011E0AE01C701B60148D2AB01A1
:10045000BC01CE011123F9F0DF91CF911F910F91D3
:10046000FF90EF90DF90CF900C942F0B8C01000F3A
:10047000111F01531E4FD8018D919C91892B11F3AF
:100480000E94390B0297F1F6D801ED91FC91CE0153
:100490000995182FD8CF0E94510B90E080E0DF9192
:1004A000CF911F910F91FF90EF90DF90CF90089523
:1004B0008FEF9FEFF4CF80E047C2CF93DF9386E0CA
:1004C00090E090933A028093390297D2EC01EFECDE
:1004D000F1E084E0DF011D928A95E9F733D61092AE
:1004E0003A0210923902CE01DF91CF9108958091A6
:1004F0003B02089580912402089560930201709355
:100500000301809304019093050190E080E0089539
:10051000FC0191E080910202811190E091830895A5
:10052000809102028F5F8132B0F480930202809149
:10053000F9019091FA01A091FB01B091FC010196A3
:10054000A11DB11D8093F9019093FA01A093FB01C5
:10055000B093FC01089510920202E9CFCF93DF938C
:1005600000D0CDB7DEB76EE070E080E090E0D5DD82
:100570009093C7048093C60443E050E0BE016F5FD0
:100580007F4FBADD2091000130910101A981BA812C
:100590000E940B276093BC047093BD048093BE043B
:1005A0009093BF04E3EEF1E0828D938DA48DB58D21
:1005B0000196A11DB11D828F938FA48FB58F0F90CF
:1005C0000F90DF91CF910895CF93DF93E3EEF1E0A9
:1005D0008AE999E9ADEEB1E480A391A3A2A3B3A304
:1005E00086EA94E8A0E2B3EE84839583A683B7837A
:1005F00087ED92E0ACECBBEC80879187A287B38754
:1006000080E99BEAA8ECBAE784879587A687B78735
:1006100084ED99E1A6E0BBE1808B918BA28BB38B3B
:10062000A7EDB1E0B383A283E3EDF1E01196FC9373
:10063000EE938CE291E0918380839383828387EFB2
:1006400091E015969C938E93149787EE91E0139604
:100650009C938E93129748E258E864E070E01896F5
:100660004D935D936D937C931B97C0ECD4E01882FF
:1006700081E090E0A0E0B0E089839A83AB83BC8303
:100680006EE070E080E090E08CDD9F838E8381E0FF
:100690008D83DF91CF9108958091C00481111DC099
:1006A00081E08093C0048091C1049091C204A09124
:1006B000C304B091C4040197A105B10571F4809100
:1006C000C504882351F06EE070E080E090E025DD05
:1006D0009093C7048093C60487CD08954F925F928C
:1006E0006F927F928F929F92AF92BF92CF92DF9242
:1006F000EF92FF920F931F93F89440901402509042
:1007000015026090160270901702C0900802D090F7
:100710000902E0900A02F0900B02452B09F0A4C0F8
:100720009B01AC01241935094609570929013A01F1
:1007300000911002109111022091120230911302C7
:1007400048015901840C951CA61CB71C8016910603
:10075000A206B306A0F400910C0210910D022091A4
:100760000E0230910F020F5F1F4F2F4F3F4F00932C
:100770000C0210930D0220930E0230930F02809210
:10078000100290921102A0921202B09213020091F4
:100790000C0210910D0220910E0230910F028092F6
:1007A000180290921902A0921A02B0921B020093B2
:1007B0001C0210931D0220931E0230931F026093AF
:1007C0001402709315028093160290931702A4E608
:1007D000B0E0A30192010E941A276C0D7D1D8E1DB1
:1007E0009F1D609308027093090280930A02909300
:1007F0000B0200910201109103012091040130913C
:1008000005010F3F1F4F2F4F3F4FF1F000910201A5
:100810001091030120910401309105010E3F1F4FFB
:100820002F4F3F4F89F0C0900201D0900301E0901C
:100830000401F090050121E08C149D04AE04BF0476
:1008400008F420E02093240278941F910F91FF90E8
:10085000EF90DF90CF90BF90AF909F908F907F9060
:100860006F905F904F9008954B015C01841895083C
:10087000A608B708A3019201261B370B480B590B9A
:100880006415750586059705D0F082169306A406B3
:10089000B50640F420E030E0A90181149104A104E0
:1008A000B10491F4A4E6B0E00E941A27A7019601D2
:1008B000261B370B480B590BCA01B901C5CF82164D
:1008C0009306A406B50670F7A4E6B0E0A50194016E
:1008D0000E941A276C0D7D1D8E1D9F1DB5CFFECE6B
:1008E000CF93DF9300D000D0CDB7DEB71C821B8240
:1008F0001A82198210922002109221021092220272
:1009000010922302BE016F5F7F4FCE0103960E94BB
:10091000602169817A818B819C810E94591A00979C
:1009200061F4BE016F5F7F4FCE0103960E946C2180
:1009300069817A818B819C8128D50F900F900F90CF
:100940000F90DF91CF910895FF920F931F93CF9354
:10095000DF93082F60E070E0CB010E942B24FF247E
:10096000F3940E944419EC01892B89F010E0CE3FEA
:100970008FEFD80769F0002361F160E070E0CB01F0
:100980000E942B2481E090E0892B59F322C011E0D2
:100990001FD5EC01892B21F0CE3F8FEFD80759F7F7
:1009A00011111EC011E0229609F410E00E94F51802
:1009B000EC01892B21F0CE3F8FEFD807E1F6111122
:1009C00011C011E0CE3F8FEFD80709F410E00111FC
:1009D0000BC0CE01DF91CF911F910F91FF90089531
:1009E00011E0E4CF11E0F3CF60E070E0CB010E94B2
:1009F0002B241F25812F90E0C7CFCF93DF938091C9
:100A00002402882321F060E070E0CB0148D631D683
:100A1000D0E0C0E0892B71F06AE070E080E090E007
:100A20000E942B2481E090DF24D62196C03727E155
:100A3000D20781F723D60E94AD1A10923C02109281
:100A40003B02109235021092360210923702109239
:100A50003802109231021092320210923302109238
:100A6000340210922D0210922E0210922F02109238
:100A700030021092290210922A0210922B02109238
:100A80002C02109225021092260210922702109238
:100A900028024EEF5FEF6FEF7FEF4093020150931C
:100AA0000301609304017093050110922402E8E1B0
:100AB000F2E028E0DF011D922A95E9F71092140276
:100AC0001092150210921602109217021092100244
:100AD00010921102109212021092130210920C0244
:100AE00010920D0210920E0210920F021092080244
:100AF0001092090210920A0210920B02DF91CF911C
:100B00000895109248021092490210924A021092DF
:100B10004B021092470280915002909151029093A3
:100B200046028093450210924402109243021092B2
:100B30003F02109240021092410210924202109223
:100B40004D0210924C0290E080E00895CF92DF9227
:100B5000EF92FF920F931F93CF938C01892B09F093
:100B600055C02091500230915102809145029091E0
:100B700046024091500250915102509346024093D8
:100B800045022817390781F010924402109243025F
:100B900010923F02109240021092410210924202C3
:100BA00010924D0210924C0280915002909151028D
:100BB000019761F580914C0290914D02892B21F4AF
:100BC00080910601811112C080914C0290914D02DA
:100BD0000197E1F480913F0290914002A09141027F
:100BE000B09142020197A105B10581F410923F0234
:100BF000109240021092410210924202109206019D
:100C000082E090E090934D0280934C0280915002DC
:100C100090915102019709F01CC180916602909158
:100C200067028017910709F014C1809162029091C8
:100C30006302A0916402B0916502009709F409C1B2
:100C40002091610221110DC0409162025091630216
:100C50006091640270916502452B462B472B09F485
:100C6000F8C020914C0230914D022230310509F03C
:100C7000F0C0209143022111ECC0FC01C080D18062
:100C8000E280F38080914702882309F4D3C08091E9
:100C9000530290915402892B09F4FDC02091530214
:100CA0003091540281E02230310509F080E020913A
:100CB000530230915402C1E02130310549F02091B6
:100CC000530230915402C1E02230310509F0C0E0F6
:100CD000882309F456C020915D0230915E02409154
:100CE0005F0250916002C701B6010E94B82387FDE0
:100CF00014C020915D0230915E0240915F025091DC
:100D00006002609148027091490280914A0290917C
:100D10004B020E94902387FD22C020915D023091FA
:100D20005E0240915F0250916002C701B6010E94CD
:100D3000B823181634F520915D0230915E0240917F
:100D40005F02509160026091480270914902809167
:100D50004A0290914B020E949023811112C080910F
:100D6000550290915602A0915702B0915802892BDA
:100D70008A2B8B2B19F481E08093440281E08093CD
:100D80004302CC2309F456C020915D0230915E02EB
:100D900040915F0250916002C701B6010E9490230A
:100DA00087FF14C020915D0230915E0240915F0286
:100DB00050916002609148027091490280914A020C
:100DC00090914B020E94B82387FF22C020915D02C0
:100DD00030915E0240915F0250916002C701B601FE
:100DE0000E949023811126C020915D0230915E0205
:100DF00040915F02509160026091480270914902F7
:100E000080914A0290914B020E94B823181694F4E4
:100E10008091550290915602A0915702B0915802CC
:100E2000892B8A2B8B2B19F481E08093440281E07B
:100E30008093430281E090914302911180E080937E
:100E40004702C0924802D0924902E0924A02F092D0
:100E50004B02012B09F067C180914C0290914D0229
:100E6000892BD9F41092520210924302809106010C
:100E7000882379F082E090E090934D0280934C02B9
:100E800010920601209150023091510281E0232BF3
:100E9000E9F080E01BC081E00ACF1092060180914A
:100EA0005202882349F01092440210924D0210928F
:100EB0004C0210925202EDCF80915002909151025B
:100EC000892BE1F0809143021092430220914C0261
:100ED00030914D022230310509F45EC088F42115AD
:100EE000310509F448C02130310509F4F3C01092EE
:100EF0004402109243021092520238C081E0E6CFC1
:100F00002330310509F4B1C02430310581F7409117
:100F10003F0250914002609141027091420241159E
:100F200051056105710561F041505109610971096F
:100F300040933F02509340026093410270934202FB
:100F400040913F02509140026091410270914202F3
:100F5000452B462B472BD9F420914E0230914F025E
:100F60002130310509F046C01092440210924D0222
:100F700010924C020CC080910601882341F082E05F
:100F800090E090934D0280934C02109206011092D3
:100F90003D0280914402CEC08823C9F3809155025E
:100FA00090915602A0915702B09158021816190656
:100FB0001A061B060CF07DC08091500290915102E0
:100FC000019709F076C08091550290915602A09148
:100FD0005702B091580280933F0290934002A09331
:100FE0004102B093420283E090E090934D028093DF
:100FF0004C02CDCF4091590250915A0260915B0250
:1010000070915C02452B462B472BA9F010924402AD
:101010008091590290915A02A0915B02B0915C02BA
:1010200080933F0290934002A0934102B09342020A
:1010300081E090E0DACF882399F0809107019091C8
:101040000801A0910901B0910A0180933F02909399
:101050004002A0934102B093420284E090E0C5CFE9
:101060001092440282E090E0C0CF80913F029091C4
:101070004002A0914102B09142020097A105B10542
:1010800059F00197A109B10980933F029093400262
:10109000A0934102B093420280913F02909140029E
:1010A000A0914102B0914202892B8A2B8B2B09F02F
:1010B0006ECF8091070190910801A0910901B09134
:1010C0000A01892B8A2B8B2B09F44ECF81E0809368
:1010D0004402B3CF40913F025091400260914102DF
:1010E00070914202411551056105710561F0415051
:1010F00051096109710940933F0250934002609386
:1011000041027093420240913F025091400260912F
:10111000410270914202452B462B472B09F037CFF5
:101120008111C7CF9FCF80913D02882309F431CF31
:1011300080913E02CF911F910F91FF90EF90DF9031
:10114000CF900895109248021092490210924A02DC
:1011500010924B021092470210924D0210924C02D4
:101160001092460210924502109267021092660297
:10117000109244021092430210923F0210924002D9
:10118000109241021092420210923E0210923D02D1
:101190001092620210926302109264021092650231
:1011A0001092610210925D0210925E0210925F0234
:1011B0001092600288EE93E0A0E0B0E08093070117
:1011C00090930801A0930901B0930A01109259026B
:1011D00010925A0210925B0210925C021092550219
:1011E0001092560210925702109258021092540216
:1011F0001092530281E080930601109252021092E5
:1012000051021092500210924F0210924E0290E042
:1012100080E008958091500290915102892BE1F471
:1012200080910601882351F080915202811106C0FD
:1012300081E080933E0280933D02089580915202A6
:10124000882341F080910601811104C010923E0272
:1012500081E0F1CF10923D02089582E090E0FA0122
:10126000918380838FEF9FEF0895CF93DF93EA01FF
:10127000009711F00E94CA1B1982188290E080E04A
:10128000DF91CF910895DB01009719F48FEF8C93D4
:1012900008952EEF2C9340968031910508F036C0CA
:1012A000FC01EB5AF64F0C9405278409820980094A
:1012B0007E097C097A09760978097409720970092E
:1012C0006D09690965096B09860980E311968C939C
:1012D000089589E2FBCF82E2F9CF11961C9208951E
:1012E00083E2F4CF81E2F2CF81E1F0CF87E2EECF6B
:1012F0008AE2ECCF80E1EACF84E2E8CF88E2E6CF71
:1013000086E2E4CF81E3E2CF83E3E0CF80E2DECF89
:101310008091740290917502089590937502809364
:101320007402089580917302089590917302892B3D
:10133000809373020895982F90958091730289236A
:1013400080937302089580917202089580917002D3
:101350009091710208956115710559F0FB0130E01B
:1013600020E070E060E02417350719F06115710581
:1013700011F0CB010895A081B181A817B90709F434
:10138000BF012F5F3F4F3696EECF809176028111DD
:101390001CC062D268D290936902809368020E9456
:1013A000CF130E94E11390936D0280936C020E9410
:1013B0005F180E94661890936B0280936A0281E026
:1013C0008093760290E080E0089584EF9FEF089587
:1013D0008F929F92AF92BF92CF92DF92EF92FF9245
:1013E0000F931F93CF93DF93CDB7DEB72A970FB636
:1013F000F894DEBF0FBECDBF1A86198618861F82ED
:101400001E821D821C821B821A82198280917602A2
:1014100007EF1FEF882309F49CC08E010D5F1F4F5B
:101420009E012B5F3F4FAE01495F5F4FBE01675F7B
:101430007F4F90E080E00E94DF198C01009721F03F
:101440000596029708F0DBC029853A8521153105FC
:1014500009F402C1ED80FE804B815C81B701640F0D
:10146000751F8F8198858617970708F4F5C0E20EDF
:10147000F31ED7019C91903C09F07FC0423051058A
:1014800008F47BC011968C914091740250917502C2
:10149000452B09F49CC0913F08F071C02CE1290F45
:1014A0002D3008F48BC02DE2290F203108F489C0BB
:1014B000903C21F48150823008F483C088E3890F86
:1014C0008B3008F481C093E4C92E99E0D92EEDE267
:1014D000F9E06D817E81AE014F5F5F4F89859A850E
:1014E00009955C01C114D104A1F189809A8081140D
:1014F000910479F18B819C818815990508F487C046
:1015000010E000E04B815C8170E060E0C7010E9468
:101510002D2701151105E9F449815A8169857A85DC
:101520008D819E81680F791FC501F6010995E980BB
:10153000FA800D811E812F81388549855A856FEF8C
:101540007FEF81E090E00E947B198C01892B09F0EC
:1015500056C0C8012A960FB6F894DEBF0FBECDBFA5
:10156000DF91CF911F910F91FF90EF90DF90CF907F
:10157000BF90AF909F908F90089580E085CF30E02E
:1015800020E0220F331FF901E859FD4F0190F0814F
:10159000E02D309709F497CF892F90E009950097B7
:1015A00009F491CFDC011296ED91FC9113971496FA
:1015B000CD90DC90309709F08CCF1FC021E030E057
:1015C000E0CF22E030E0DDCF23E030E0DACFD12CF5
:1015D000C12CE5E3F9E09F3F09F07BCFE091680281
:1015E000F0916902309721F4C90104EF1FEF0CC09C
:1015F0008FEF90E009950097A9F604EF1FEF89851A
:101600009A85009709F4A5CF0E94CA1BA2CF0E9419
:10161000A81A8C0189859A850E94CA1B70E060E037
:10162000C4010E94411A98878F830E9478199E8373
:101630008D836F8178856115710559F0C8010E940D
:10164000561D9A87898706EF1FEF892B09F058CF1F
:1016500059CF08EF1FEF56CF08EF1FEFD0CF2091E3
:101660007602222319F020E00C94E61387EF9FEF17
:101670000895809174029091750208950E946B18EC
:101680000E94C517F5D0E8E6F2E088E0DF011D9280
:101690008A95E9F71092760290E080E008950C9424
:1016A000221621E040E050E0BA010C94E61386E0F7
:1016B00090E0FA019183808390E080E0089547E014
:1016C00050E06FE271E047CEDF92EF92FF920F930E
:1016D0001F93CF93DF938A01EC01C60FD71FE090D1
:1016E0007A02F0907B02D9800E94901AD8161906CF
:1016F00078F082E090E0F801918380838EEF9FEF95
:10170000DF91CF911F910F91FF90EF90DF9008959F
:10171000EF2841F482E090E0F8019183808384EF28
:101720009FEFEECF89818093790290E00196F801D6
:101730009183808390E080E0E3CFCF93DF93EA0151
:101740000E94D316882321F00E949D1A0E94D4166D
:1017500082E090E0998388838BEF9FEFDF91CF91B8
:101760000895CF93DF93EB0186E0FB0111928A95F8
:10177000E9F78FEF8883D6DD8983E5DD8A83E6DDAF
:101780009D838C83DF91CF910895CF93DF93EA01FE
:101790000E94D616811109C082E090E09983888367
:1017A00085EF9FEFDF91CF91089590E080E0B5DD68
:1017B00081E090E09983888390E080E0F3CF0F93FD
:1017C0001F93CF93DF93EA018C01060F171F0E942E
:1017D000D61681110BC082E090E09983888385EF53
:1017E0009FEFDF91CF911F910F910895F8018181B3
:1017F000823038F082E090E0998388838EEF9FEF0B
:10180000F0CF81E090E089DD88E090E099838883E3
:1018100090E080E0E6CFCF93DF930097D1F4EB0127
:10182000FB01329686E0DF011D928A95E9F78FEF82
:10183000888385E089831A820E94901A8B830E9494
:101840008F1A9D838C8381E08E838F83DF91CF916C
:101850000895DF91CF9117CD8FE59BE090937802AB
:10186000809377020895809177029091780208958D
:101870001092780210927702089580917A029091E6
:101880007B020895411105C061157105810591051F
:1018900061F060937A0270937B0280937C02909354
:1018A0007D0240937E0281E0089580E00895FF92DA
:1018B0000F931F93CF93DF938A01EC01C60FD71FBD
:1018C000F9800E94901AF816190668F082E090E0FC
:1018D000F801918380838EEF9FEFDF91CF911F916D
:1018E0000F91FF9008956C817D818E819F814B8146
:1018F000C9DF811108C082E090E0F8019183808304
:1019000084EF9FEFEACF89818093790290E001967E
:10191000F8019183808390E080E0DFCFCF93DF9365
:10192000EA01FC01E60FF71F6481758186819781CA
:101930004381A8DF811109C082E090E09983888308
:1019400084EF9FEFDF91CF91089581E090E099833C
:10195000888390E080E0F6CFEAE7F2E040815181B1
:1019600062817381480F511D611D711D4083518338
:10197000628373830895CF93C09179024C2F50E016
:1019800060917A0270917B0201960E9424278C2F2D
:10199000E3DF10927902CF910895009799F4809136
:1019A0007A0290917B022FEFFB012083892B59F063
:1019B0002091790230E02F5F3F4F2417350719F44B
:1019C000CB01D9CF60CC0895009799F480917A0229
:1019D00090917B022FEFFB012083892B59F02091FE
:1019E000790230E02F5F3F4F2417350719F4CB0100
:1019F000C2CF49CC089523E1AC01249FC001259FAB
:101A0000900D1124E0918302F0918402E80FF91FF8
:101A1000238134812250310981E02230310508F0E0
:101A200080E008950F931F93CF93DF930091850279
:101A300010918602D0E0C0E080E00C171D0749F449
:101A400091E0811190E0892FDF91CF911F910F914B
:101A500008958111F5CFCE01CEDF2196EECFA09172
:101A60008302B0918402109729F120918502309170
:101A7000860282179307F0F453E1589F9001599F13
:101A8000300D1124A20FB31FED91FC9111973097E7
:101A900089F012968C91681768F48DE0689FE00DCC
:101AA000F11D112480819181892B21F081E09281A7
:101AB000491708F080E008959C0143E1429FC0016E
:101AC000439F900D1124E0918302F0918402E80F6E
:101AD000F91F8385823091F481E090E06581768101
:101AE00040910B0150910C016417750711F490E0BF
:101AF00080E0892B19F081E0232B09F080E0089524
:101B0000FC01A081B1818DE0689FA00DB11D112461
:101B100013964D915C9185859685489F9001499FCC
:101B2000300D589F300D1124C9010196611103C079
:101B3000478144FD04960895EF92FF920F931F93FF
:101B4000CF93DF93EA01FC01E60FF71F02811381B7
:101B5000E480F5804F2D6E2DC80181DF81110DC00D
:101B600082E090E0998388838EEF9FEFDF91CF91A1
:101B70001F910F91FF90EF900895C8013CDF8823DB
:101B800039F082E090E09983888388EF9FEFEECF71
:101B90001093120100931101E0921301F0921401CD
:101BA00081E090E09983888390E080E0DFCFCF925E
:101BB000DF92EF92FF920F931F93CF93DF937A01FF
:101BC000EC01C60FD71FC0901101D09012010091F7
:101BD000130110911401412F602FC60140DF8111C4
:101BE00010C082E090E0F701918380838AEF9FEF3D
:101BF000DF91CF911F910F91FF90EF90DF90CF90E9
:101C00000895C601F8DE882341F082E090E0F701F4
:101C10009183808388EF9FEFEBCF4C815D816E8154
:101C20007F819A8189818F3F41F082E090E0F701C6
:101C3000918380838EEF9FEFDBCFE3E1EC9D9001FA
:101C4000ED9D300D1124E0918302F0918402E20FAA
:101C5000F31F0190F081E02D2DE0029FE00DF11DBA
:101C600011240190F081E02D27E0129FE00DF11D7D
:101C70001124808391838B81828343835483658382
:101C800076831F5F1093140181E090E0F701918348
:101C9000808390E080E0ACCFEF92FF920F931F9390
:101CA000CF93DF937A018C01060F171FC091830237
:101CB000D0918402209781F021E030E0F801828108
:101CC000938140918502509186028417950710F008
:101CD00030E020E0232B71F482E090E0F701918363
:101CE00080838EEF9FEFDF91CF911F910F91FF9037
:101CF000EF90089543E1489F9001499F300D1124D2
:101D0000C20FD31F78DE882341F082E090E0F70114
:101D10009183808388EF9FEFE6CFF801248135819E
:101D200020383105C8F687818111D6CF4181842FB3
:101D300090E08F7E009741F082E090E0F701918380
:101D4000808386EF9FEFCFCF4F833E832D83268105
:101D500028871986223010F421E0288721E030E01E
:101D6000F70131832083BFCF88E090E0FA019183AF
:101D7000808390E080E00895FB018FEF808381E114
:101D800081838FEF9FEF9383828380E890E0958338
:101D90008483168217820895FB018FEF808391E080
:101DA000918382839383848384E3858381E090E0BD
:101DB00097838683089582E090E0FA01918380837F
:101DC00080EF9FEF0895DF92EF92FF920F931F93A2
:101DD000CF93DF93EA01FC01E60FF71F8181813089
:101DE00071F082E090E0998388838FEF9FEFDF911D
:101DF000CF911F910F91FF90EF90DF900895828116
:101E00009381D4802581E680F78000918302109130
:101E100084020115110539F482E090E099838883EA
:101E20008CEF9FEFE4CF409185025091860284179A
:101E3000950738F082E090E0998388838EEF9FEFDA
:101E4000D6CF892B39F082E090E09983888386EFA2
:101E50009FEFCDCF8D2D8D7FB1F72130A1F781E0A0
:101E6000D11006C091E0E916F10431F080E004C021
:101E7000E2E0EE16F104D0F3882329F390E080E04D
:101E8000BADD882339F082E090E09983888388EF77
:101E90009FEFADCFF801D38681E08487F686E58693
:101EA000108A178681E090E09983888390E080E033
:101EB0009ECF4DE050E069E571E04DCA8F929F9250
:101EC000BF92CF92DF92EF92FF920F931F93CF9327
:101ED000DF93EA01FC01E60FF71F82819381048101
:101EE000B580E0918302F0918402309791F482E012
:101EF00090E0998388838CEF9FEFDF91CF911F91C2
:101F00000F91FF90EF90DF90CF90BF909F908F90B8
:101F1000089520918502309186028217930738F048
:101F200082E090E0998388838EEF9FEFE6CF23E1F4
:101F3000289F6001299FD00C1124EC0DFD1DE0802D
:101F4000F180E114F10499F28281081748F78DE0DD
:101F5000089F80011124E00EF11EF701808191811C
:101F6000892B29F6BB20E1F2F7E0BF9E4001112446
:101F7000C4010E94911BF70191838083E091830249
:101F8000F0918402EC0DFD1D0190F081E02DE00F39
:101F9000F11F80819181009739F482E090E099836C
:101FA00088838DEF9FEFA9CFA40170E060E00E94CD
:101FB0002D278091830290918402C80ED91EF601CC
:101FC00080819181080F191FF801B28281E090E0B1
:101FD0009983888390E080E090CFAF92BF92CF92B8
:101FE000DF92FF920F931F93CF93DF93EA01FC01DF
:101FF000E60FF71F82819381F48000918302109194
:1020000084020115110581F482E090E099838883B0
:102010008CEF9FEFDF91CF911F910F91FF90DF9099
:10202000CF90BF90AF9008952091850230918602A5
:102030008217930738F082E090E0998388838EEFCF
:102040009FEFE8CF2FEF2F0D2C3FA8F723E1289F1C
:102050006001299FD00C11240C0D1D1DF8018081F9
:102060009181892B89F6FDE0FF9E50011124C50165
:102070000E94911BF80191838083E0918302F0918B
:102080008402EC0DFD1D80819181009739F482E07E
:1020900090E0998388838DEF9FEFBCCFA50170E01E
:1020A00060E00E942D27E0918302F0918402EC0D04
:1020B000FD1DF28281E090E09983888390E080E0CA
:1020C000A9CFCF92DF92EF92FF920F931F93CF93FE
:1020D000DF93860F971FFC01028113818091830299
:1020E00090918402892B81F082E090E0FA01918343
:1020F00080838CEF9FEFDF91CF911F910F91FF9025
:10210000EF90DF90CF900895C801B0E0A0E0019774
:10211000A109B1098F3F9F4FA105B10540F082E0B1
:1021200090E0FA01918380838EEF9FEFE4CF7A01F4
:1021300083E1809F6001819FD00C1124C6010E9421
:10214000911BEC01009741F482E090E0F70191834C
:1021500080838DEF9FEFCFCFA60170E060E00E94FB
:102160002D27D0938402C09383021093860200939C
:10217000850290E080E02FEF3FEF41E061E070E00A
:102180008017910741F481E090E0F701918380830B
:1021900090E080E0B0CF3A8B298B1B864C877E87FE
:1021A0006D87188A1F8601966396EACFEF92FF9299
:1021B0001F93CF93DF93EC0110E0F12CE12C6A81A7
:1021C0001617A8F070E0660F771FAE014F5E5F4FE5
:1021D000C7010E94F61B009721F02FEF3FEF3A8BCB
:1021E000298BDF91CF911F91FF90EF900895612F80
:1021F000CE0186DC61E070E00E94411AE816F90623
:1022000008F47C011F5FDBCFF894209181023091AC
:10221000820281E02115310509F080E0232B09F0CD
:10222000789408952F923F924F925F926F927F928F
:102230008F929F92AF92BF92CF92DF92EF92FF92D6
:102240000F931F93CF93DF933C01660E771EF3012C
:10225000828193814C01B12CA12CC0918302D09139
:102260008402209769F021E030E06091850270914E
:1022700086028617970710F030E020E0232BD1F478
:1022800082E090E0FA01918380838EEF9FEFDF91EF
:10229000CF911F910F91FF90EF90DF90CF90BF9063
:1022A000AF909F908F907F906F905F904F903F90F6
:1022B0002F9008958092150190921601A092170117
:1022C000B092180163E1689F9001699F300D11245D
:1022D000C20FD31FF3018181833040F082E090E090
:1022E000FA019183808386EF9FEFD1CF2A012B8162
:1022F0003C81232BF1F4288139819F8191FF2EC0ED
:10230000232B09F46FC0209188029A81422F490F34
:102310005527551FBA0141E050E06138710514F0AE
:1023200050E040E0452B09F45DC02A87920F90935E
:1023300088028150823008F481C066DF882309F466
:10234000D8C0F3018181813009F48DC008F47BC0CD
:10235000823009F4C6C090E080E0ADC0232B09F4C0
:1023600041C0209187029A81E22FE90FFF27FF1FCA
:1023700041E050E0ED3FF10514F050E040E0452B26
:1023800089F12A87920F90938702D3CFA081B181E0
:10239000A20FB31F11966C91060F111D0196295FB4
:1023A0003F4F8417950794F38D859E85089F1001F4
:1023B000099F300C189F300C1124C114D104D1F4A2
:1023C0008F8184FF17C00E948F1AF5E02F0E311CF9
:1023D00021E08215930508F420E0A701435F5F4FD9
:1023E00021110EC082E090E0F2019183808387EF9B
:1023F0009FEF4DCF0E948F1A2FEF221A320AE8CF9B
:1024000088819981E80EF91EF70114830383FFEF99
:10241000CF1ADF0A7A018A818C151D0409F00CF4A9
:102420008CCFE881F981EE0DFF1D428150E030E054
:1024300020E010E000E090E080E0B3CFF12CE12C50
:10244000D12CC12CE8CF81E090E09C838B83EADA29
:10245000882309F480CF81E090E00E948D0980E418
:102460000E949B0978CF89899A89019661F083E05F
:1024700090E09C838B8382E090E00E948D0980E451
:102480000E94950968CF8D819E8120910B0130912A
:102490000C0182179307D1F460910F017091100124
:1024A000AE014F5E5F4F80910D0190910E010E9431
:1024B000151D0097E1F2789422E030E0F2013183BB
:1024C0002083892B99F08DEF9FEFE1CE89288A2810
:1024D0008B2869F6029758F6CE0168DE188A1F86A7
:1024E000E8CF82E090E09C838B8335CF90E080E062
:1024F000CECE82E090E0F2019183808385EF9FEF62
:10250000C6CE8F929F92AF92BF92CF92DF92EF9200
:10251000FF920F931F93CF93DF93EA018C01060F75
:10252000171FF8018181833098F082E090E0998351
:10253000888386EF9FEFDF91CF911F910F91FF90DE
:10254000EF90DF90CF90BF90AF909F908F900895C5
:102550008091830290918402892B61F081E090E068
:102560002091850230918602232B11F490E080E0C7
:10257000892B39F482E090E0998388838EEF9FEF76
:10258000DACF42DE882309F4E0C0F801818181308E
:1025900009F496C0E8F0823099F4209185023091D8
:1025A0008602E0918302F091840290E080E041E0B5
:1025B00050E02817390709F0BEC034DA811117C07E
:1025C000789481E090E09983888390E080E0B3CFB5
:1025D0002091850230918602E0918302F09184027D
:1025E00090E080E041E050E02817390741F481E0B5
:1025F00090E00E948D0980E40E949B09E1CF6381F5
:102600007481672B11F05483438301967396ECCF4A
:10261000E0918302F0918402E00FF11F2381348165
:1026200022303105D9F4218932892F3F3F4FB1F44F
:102630002581368140910B0150910C0124173507FB
:1026400061F5AF014F5E5F4F60910F017091100116
:1026500080910D0190910E010E94151DEFEFCE1A91
:10266000DE0AEE0AFE0A0D5E1F4F40918502509170
:10267000860270E060E0C416D506E606F70644F56B
:10268000009731F27894892B09F49BCF82E090E097
:10269000998388838DEF9FEF4ECFC114D104E1045D
:1026A000F104E1F622303105C8F6CF017FDDE0917B
:1026B0008302F0918402E00FF11F108A1786CECFBB
:1026C00010E000E090E080E0C12CD12C7601CDCF6D
:1026D0000097C1F610E000E0812C912C540183E0BA
:1026E000E82EF12C1AC0E0918302F0918402E00FF1
:1026F000F11F83819481029749F4F482E38282E09E
:1027000090E00E948D0980E40E949509FFEF8F1AE6
:102710009F0AAF0ABF0A0D5E1F4F809185029091FC
:102720008602B0E0A0E088169906AA06BB06DCF295
:1027300090E080E0A7CF638174816230710511F46D
:10274000548343830196739634CF82E090E099835B
:10275000888385EF9FEFEFCE0097B9F48FEFFB01F1
:102760008083209115013091160143E1429FC00101
:10277000439F900D1124E0918302F0918402E80FB1
:10278000F91F8285FB01818308950C94430988E039
:1027900090E0FA019183808390E080E008951092A8
:1027A000820210928102E3E8F2E086E0DF011D92EE
:1027B0008A95E9F789E59FE09093800280937F02F4
:1027C000089580917F029091800208952F923F9208
:1027D0004F925F926F927F928F929F92AF92BF9231
:1027E000CF92DF92EF92FF920F931F93CF93DF93DD
:1027F000CDB7DEB72F970FB6F894DEBF0FBECDBFB3
:10280000F894E0918102F09182023196F093820275
:10281000E0938102789440908302509084024114A6
:10282000510409F40CC2E0918502F0918602EF2B6D
:1028300009F405C22D8749875A876B877C8798875B
:102840008F831201B12CA12C10E000E08091850251
:1028500090918602A816B90618F40115110529F100
:10286000F894809181029091820201979093820264
:10287000809381027894C8012F960FB6F894DEBF3A
:102880000FBECDBFDF91CF911F910F91FF90EF90C1
:10289000DF90CF90BF90AF909F908F907F906F9080
:1028A0005F904F903F902F9008957101E418F508C4
:1028B000D10117968C91179781FD54C013968D9175
:1028C0009C911497039709F04DC015968D919C919A
:1028D000EF81F8858E179F0709F044C0B50190E09D
:1028E00080E07ED48A8320918302309184023D83EC
:1028F0002C833D85332309F44CC04C815D81452BED
:1029000009F49AC18091850290918602A816B906B1
:1029100008F092C1C501D0D88823E9F06C817D818F
:102920006E0D7F1D7D836C83DB011F968D919C91C5
:10293000892B89F0D12CC12CF12CE12CAC81BD81EB
:1029400012968C9112978E151F0409F094F45096EC
:102950001C921E921F972A81222321F0B50190E03C
:1029600080E040D43FEFA31AB30A43E1240E311CA8
:102970006DCFAC81BD81ED91FC91EC0DFD1D85818C
:10298000968108D7BFEFEB1AFB0AEDE0CE0ED11C03
:10299000D5CFEC81FD81309709F44EC1809185023D
:1029A00090918602A816B90608F046C1EE0DFF1DEB
:1029B000FF87EE87C50180D88B83882339F1AE85E8
:1029C000BF851F968D919C915097019621E01D9691
:1029D0004D915C918417950709F020E02E831982B0
:1029E000712C10E000E0AE85BF8512968C917816B0
:1029F00008F45DC0EE85FF85878590890196658521
:102A000076850E94CF26908B8787A5CFB1E0BE83C5
:102A1000E6CF992493946BC084D6F6019683858380
:102A200082C0D601ED90FC90B7E06B9EE00CF11CEB
:102A30001124F7016381748180818F3F61F121E06E
:102A400030E002C0220F331F8A95E2F7C901092E38
:102A5000000CAA0BBB0BFB01408151816281738189
:102A600084239523A623B72321E0892B8A2B8B2B44
:102A700009F420E0D4012C93D70111968C91F60132
:102A800023853485820F932F911D880E991E1486FD
:102A9000138663949BC0418150E0C4010E942427A7
:102AA000EBCF998206EF1FEFC5C01982C3C0F98131
:102AB000F111A0CFEDE07E9E70011124AE85BF859F
:102AC000CD90DC90CE0CDF1C13D49D838C83BB8116
:102AD000BB2309F49ECF81E0EE85FF8527853089F1
:102AE000232B09F080E0982E882309F458C0672D25
:102AF0008E859F8505D8D60118969C938E9317973F
:102B000061E070E0BED4EE85FF85218932892F3FD8
:102B1000320709F481CFBC01C901C8D7D601169686
:102B20009C938E931597D60115968D919C9116972F
:102B3000009709F4B6CFEC81FD818E0F9F1F1A9686
:102B40009C938E931997AE85BF85ED91FC9111975B
:102B5000EE0EFF1EF70121853285148613861A9624
:102B60008C91870DD9018D93711016C0EE85FF856C
:102B7000878184FF11C049855A856B857C85F90161
:102B80004183528363837483F7018385948504961C
:102B9000A80FB91F14861386F701B287A187D60143
:102BA00015968D919C911697892B09F443C0EE855B
:102BB000FF852581368180910B0190910C012817AA
:102BC000390779F019968D909C90612CD601129658
:102BD0008C911297681608F424CF1A969C928E92C4
:102BE0001997BE81BB2309F460CF61E070E0F60164
:102BF0008781908546D4D6011796ED90FC90189762
:102C000015964D915C91E1E0F0E0BA81BB2311F0A3
:102C1000F0E0E0E00C811D819C01B5018827992737
:102C20008E1B9F0B68D38C01892B21F0F6018581C7
:102C30009681B0D57394D7CE0FEF1FEF8CCE10E0F6
:102C400000E00ECE2F923F924F925F926F927F9252
:102C50008F929F92AF92BF92CF92DF92EF92FF92AC
:102C60000F931F93CF93DF938091830290918402FF
:102C700010E000E0892BA9F0C7DA0AEF1FEF8823E4
:102C800081F02090850230908602C0918302D0911D
:102C90008402D12CC12C10E000E02C143D04A9F4D6
:102CA0007894C801DF91CF911F910F91FF90EF9021
:102CB000DF90CF90BF90AF909F908F907F906F905C
:102CC0005F904F903F902F900895C6010E945C0D39
:102CD000882309F18B819C810397E9F48F8598897A
:102CE000892BC9F0B60190E080E07AD221E030E093
:102CF000882311F030E020E044245524421A530A7E
:102D0000B12CA12C912C812C8A818815190409F0F1
:102D100038F4188A1F864FEFC41AD40A6396BDCFC1
:102D2000E881F981EA0DFB1D85819681892BA1F14E
:102D300061E070E087819085A4D33C01D9D28C01F9
:102D4000E881F981EA0DFB1D818592852581368117
:102D5000200F311FAC01421B530B9A014781508554
:102D6000421B530B70E060E00E942D27E881F9813F
:102D7000EA0DFB1DE780F084458156819301B60181
:102D8000C201B9D28C01892B39F0E881F981EA0DB1
:102D9000FB1D85819681FED45FEF851A950A8DE033
:102DA000A80EB11CB1CF30CA789408952F923F92EB
:102DB0004F925F926F927F929F92AF92BF92CF920B
:102DC000DF92EF92FF920F931F93CF93DF9300D088
:102DD00000D000D0CDB7DEB70091830210918402FD
:102DE000992493940115110509F43EC0A090850221
:102DF000B090860209DA982E8823B1F110928402ED
:102E0000109283021092860210928502109287021D
:102E1000109288028FEF9FEFDC0180931501909351
:102E20001601A0931701B093180178947AD31E83EA
:102E30000D83C12CD12C7601C501B0E0A0E08983BF
:102E40009A83AB83BC8322242A94322C89819A8171
:102E5000AB81BC81C816D906EA06FB06F4F0C801AE
:102E600099D480E40E949B09892D26960FB6F89488
:102E7000DEBF0FBECDBFDF91CF911F910F91FF90AD
:102E8000EF90DF90CF90BF90AF909F907F906F902A
:102E90005F904F903F902F900895AD81BE81159621
:102EA0008D919C91169720910B0130910C01821706
:102EB0009307D1F451968D919C91E6D5ED81FE81D9
:102EC00080819181B12CA12C412C512C3201892B74
:102ED00089F5BFEFCB1ADB0AEB0AFB0AED81FE8115
:102EE0007396FE83ED83B2CFC114D104E104F104E3
:102EF00029F7029718F7ED81FE81818992898F3F2A
:102F0000980709F021D5AD81BE8152963C922E9250
:102F10005197D4CF8A0D9B1DDC018D919C91009718
:102F200009F038D4BFEF4B1A5B0A6B0A7B0AEDE05D
:102F3000AE0EB11CAD81BE818D919C911197129600
:102F40004C9150E070E060E0441655066606770646
:102F50000CF320D4BECFCF93DF93EA0127DF81119A
:102F600009C082E090E09983888385EF9FEFDF912D
:102F7000CF91089581E090E00E948D0981E090E07A
:102F80009983888390E080E0F2CF10DF1092800276
:102F900010927F02089542E050E067EA71E00C94DD
:102FA000AB09FF920F931F93CF93DF938A01EC013C
:102FB000C60FD71FF980B4D20897F816190671F01A
:102FC00068F082E090E0F801918380838EEF9FEFBC
:102FD000DF91CF911F910F91FF9008956C817D81BA
:102FE0008E819F814B810E94420C811108C082E03A
:102FF00090E0F8019183808384EF9FEFE9CFF9801F
:103000000E943D0C4F2D50E0BE01685F7F4F0E9433
:10301000242789810E94AC0C81E090E0F801918323
:10302000808390E080E0D4CFDF92EF92FF920F9305
:103030001F93CF93DF938A01EC01C60FD71F0E9425
:103040003D0C7C01D9806CD2DD2059F0029721E043
:1030500030E0D816190619F010F030E020E0232BEC
:1030600079F482E090E0F801918380838EEF9FEF06
:10307000DF91CF911F910F91FF90EF90DF90089516
:10308000EF2841F482E090E0F8019183808384EF9F
:103090009FEFEECFF9800E943D0C4F2D50E0BE0116
:1030A0006E5F7F4F0E94242789810E94AC0C81E0D3
:1030B00090E0F8019183808390E080E0D9CF8BECA1
:1030C00097E190938A028093890208958091890202
:1030D00090918A0208950895FC01118210829383D1
:1030E00082830895DB011D921C92DC011296ED9102
:1030F000FC9113977183608313967C936E93129760
:103100000895FC0180819181DB018D939C93A081C6
:10311000B181109741F08D919C9191838083892B8F
:1031200011F4F383E2830895FC0180819181DB0136
:103130008D939C93892B11F47383628371836083D5
:103140000895FC0111821082938382830895CF93A6
:10315000DF9300D0CDB7DEB71A821982F894BE0192
:103160006F5F7F4F80E992E0CCDF89819A81009781
:1031700009F010D389819A81892B89F7BE016F5F8D
:103180007F4F84E992E0BDDF89819A81009709F041
:1031900001D389819A81892B89F778940F900F90B8
:1031A000DF91CF910895CF93DF9300D0CDB7DEB7F5
:1031B0001A821982F894BE016F5F7F4F8CE892E00B
:1031C000A0DF89819A81009709F0E4D289819A81F0
:1031D000892B89F778940F900F90DF91CF91089504
:1031E00081E0089590E080E00895EF92FF920F93C0
:1031F0001F93CF93DF9300D0CDB7DEB71A82198229
:1032000080918B0207EF1FEF8823A1F1F894BE0194
:103210006F5F7F4F84E992E074DF789489819A81AF
:10322000EE24E394F12C892B51F4F894BE016F5FE6
:103230007F4F80E992E065DF7894F12CE12C898161
:103240009A810EEF1FEF0097A9F0FC014281538194
:1032500064E070E06AD68C01892B61F0F894698192
:103260007A81C701880F991F880F991F80579D4F3A
:103270005BDF7894C8010F900F90DF91CF911F9181
:103280000F91FF90EF9008950F931F93CF93DF93CB
:1032900000D000D0CDB7DEB71C821B821A82198203
:1032A00080918B0207EF1FEF8823C1F0AE014D5FC5
:1032B0005F4F64E070E0CE010196AAD68C01892BA5
:1032C00069F4E981FA818B819C8193838283F894EC
:1032D00069817A818CE892E005DF7894C8010F90CB
:1032E0000F900F900F90DF91CF911F910F91089544
:1032F000AED7049608958F929F92AF92BF92CF92CD
:10330000DF92EF92FF920F931F93CF93DF9300D042
:10331000CDB7DEB71A821982BC016F5F7F4F633071
:10332000710598F0AA24AA94BA2CC5010F900F90A9
:10333000DF91CF911F910F91FF90EF90DF90CF9091
:10334000BF90AF909F908F9008954115510551F314
:10335000480159018A016C01CBDF8815990511F7E5
:10336000E114F104F9F28E0D9F1DA816B906D0F2F2
:1033700080918B028823F1F0F894B50164507109B3
:103380009701AE014F5F5F4FC8010496D5D65C012F
:10339000892B71F489819A81F80193838283C60114
:1033A000880F991F880F991FB80180579D4F9ADE8B
:1033B0007894BBCF87EFA82EBB24BA94B6CFAF9238
:1033C000BF92CF92DF92EF92FF920F931F93CF9312
:1033D000DF9300D0CDB7DEB71A821982892B09F0AE
:1033E00047C06115710509F443C04115510509F441
:1033F0003FC02115310509F43BC001151105C1F18C
:1034000080918B028823B9F179016A015B01F894FC
:10341000BE016F5F7F4F8CE892E073DE7894898104
:103420009A81009759F1DC0112966D917C91A80167
:1034300004969BD68C01E981FA81D501ED93FC932A
:10344000828193810496F6019183808351DFD701B5
:103450008D939C93C8010F900F90DF91CF911F9196
:103460000F91FF90EF90DF90CF90BF90AF900895B5
:103470000FEF1FEFEFCF07EF1FEFECCF0EEF1FEFB8
:10348000E9CFCF93DF93EC01672B71F4E9D68C176A
:103490009D0760F0DCD62496C80FD91FDBD68C0FB1
:1034A0009D1FDF91CF910895D8D6F1CF90E080E0B5
:1034B000F8CF0F931F93CF93DF9320918B022111AD
:1034C0002BC08B01EC0180E992E006DE84E992E0FA
:1034D00003DE8CE892E000DE97D00097C1F4C0D6FE
:1034E00070E060E0CEDF49E151E062E070E07ED163
:1034F000009769F48091190190911A01C3D6B8011F
:10350000CE01F9D4009719F421E020938B02DF91CA
:10351000CF911F910F91089584EF9FEFF8CF9DC633
:103520009FC6CF93DF939FD6EC01892B11F40FDE5A
:103530003ADECE01DF91CF910895CF93DF9393D6FA
:10354000EC01892B09F403DECE01DF91CF910895C0
:103550008091190190911A010895CF93DF93809182
:103560008B02D0E0C0E08823D1F091D6EC01892B0A
:10357000B1F4EDDD18DE8091190190911A01E4D1CA
:10358000E5D2EC01892B59F480E992E0DADD84E997
:1035900092E0D7DD8CE892E0D4DD10928B02CE0170
:1035A000DF91CF910895EF92FF920F931F93CF93E6
:1035B000DF93EC017A018B010F5F1F4F0E9DA0017D
:1035C0000F9D500D1E9D500D112470E060E00E9473
:1035D0002D2790E080E0F0E0E0E02FEFE816F9061C
:1035E00039F4DF91CF911F910F91FF90EF900895E3
:1035F0001A8219822883309711F0D283C1830196F1
:10360000FE01C00FD11FEACFCF92DF92EF92FF925F
:103610000F931F93CF93DF930CE613E00C7F43E0EF
:1036200050E06BE171E081E291E012D48BE1E82E91
:1036300081E0F82E91E2C92E91E0D92EC3EDD3E0BE
:10364000D7014D915D917D01F601619171916F01FD
:10365000198308835D834C835B834A837F836E83F6
:103660009B012F5F3F4F249FC001259F900D349FEA
:10367000900D1124998788870115110511F0C80153
:1036800092DF88859985080F191F2A96F1E2EF16B7
:10369000F1E0FF06A9F6EAE9F2E08FECDF011D9206
:1036A0008A95E9F710929902109298021092F2030B
:1036B0001092F1031092F6031092F5031092F403A6
:1036C0001092F3031092F8031092F7031092FA038A
:1036D0001092F9031092FC031092FB031092000465
:1036E0001092FF031092FE031092FD031092020449
:1036F0001092010410920404109203041092D0035B
:103700001092CF031092D2031092D10390E080E088
:10371000DF91CF911F910F91FF90EF90DF90CF90AD
:1037200008950097F1F0F894A1E2B1E0E3EDF3E041
:1037300030E020E04D915D9148175907A8F0428193
:1037400053814115510581F08AE0829FF001839FEA
:10375000F00D1124ED52FC4F80819181009759F4B6
:10376000789490E080E008952F5F3F4F3A962330A1
:10377000310501F7F5CFDC0111966D917C917183D4
:1037800060834150510953834283FC012193CF014F
:1037900078940895009749F1DC018E91853041F4C9
:1037A000E091D103F091D2033097F9F0CD01099463
:1037B0008530D8F4282F30E0F8948FEF8C938AE08E
:1037C000829FF001839FF00D1124ED52FC4F808108
:1037D000918112969C938E931197B183A0838281DD
:1037E000938101969383828378940895CF92DF9298
:1037F000EF92FF920F931F93CF93DF939C018DE97C
:1038000092E08C7F4115510509F49BC021153105CB
:1038100009F497C06115710509F493C07A01AB01F1
:10382000B9016D5F7F4F6C7F9B012F5F3F4F249FDE
:103830008001259F100D349F100D1124F8942091C4
:10384000F1033091F203232B59F42091F9033091C5
:10385000FA032115310569F12017310708F058C026
:103860002091FB033091FC03232B91F42091F90369
:103870003091FA03820F931F2091030430910404C6
:103880002115310509F441C02017310708F056C051
:103890007894CFEFDFEF86EF9FEFF701D183C083FE
:1038A000DF91CF911F910F91FF90EF90DF90CF901C
:1038B0000895C3E0D0E0C0909802D09099022CEC1B
:1038C00030E02C193D092017310710F32AE02C9F16
:1038D000F0012D9FF00D1124ED52FC4F9183808358
:1038E000558344835383428377836683118700879C
:1038F000009709F058DE0C0D1D1D109399020093DE
:103900009802789490E080E0C8CFC4E0D0E0D3CFB4
:10391000C3E0D0E02AE02C9FF0012D9FF00D112490
:10392000ED52FC4F918380835583448353834283BC
:1039300077836683009729F336DEE3CFC4E0D0E0D7
:10394000E9CF8FEF9FEFACCF9C010397029708F070
:1039500069C0F89484E09AE0482F50E024173507B6
:103960000CF44DC091E08AE0829FF001839FF00D3E
:103970001124ED52FC4F11821082158214821382A1
:103980001282178216829923B1F18091F1039091EE
:10399000F203892BA9F42091F9033091FA03211540
:1039A000310571F08091980290919902821B930BDE
:1039B00090939902809398021092FA031092F9035F
:1039C0008091FB039091FC03892BA9F420910304BF
:1039D000309104042115310571F080919802909185
:1039E0009902821B930B90939902809398021092F4
:1039F000040410920304789490E080E00895949F6A
:103A0000F001959FF00D1124ED52FC4F4081518142
:103A1000452B31F440855185452B11F481509CCFC5
:103A200090E0A1CF8FEF9FEF08954115510549F127
:103A3000009739F16115710521F1F8942091CF03B8
:103A40003091D003232BB9F42091D1033091D203CC
:103A5000232B89F49093D0038093CF037093D203E8
:103A60006093D103789425E030E090E080E0FA01A3
:103A700031832083089578942FEF3FEF86EF9FEFF7
:103A8000F6CF8FEF9FEF0895059769F4F8941092A1
:103A9000D0031092CF031092D2031092D1037894E6
:103AA00090E080E008958FEF9FEF08956115710514
:103AB00019F4F0E0E0E011C08530910581F4E09167
:103AC000CF03F091D0033097A1F3CB010196099574
:103AD000009779F3FC0185E08193CF0108959C0163
:103AE000235031092230310520F72AE0289FD001E8
:103AF000299FB00D1124AD52BC4F2D913C911197CF
:103B0000232BB9F216962D913C911797261737075C
:103B100080F2F89412962D913C911397211531055E
:103B200029F0ED91FC911197309711F47894C1CF61
:103B30004181528111965C934E9321503109139625
:103B40003C932E93129781937894C7CFE9E6F3E0E4
:103B500086E6DF011D928A95E9F7EAE9F2E08FEC4B
:103B6000DF011D928A95E9F710929902109298024E
:103B7000E3EDF3E082E3DF011D928A95E9F7EFECD4
:103B8000F3E084E0DF011D928A95E9F790E080E0A0
:103B90000895CF93DF93C0912701D0912801CF3FA3
:103BA000DC0759F440D4909328018093270197FFB4
:103BB00009C0D0932801C093270184EF9FEFDF91C4
:103BC000CF91089590E080E0FACF8230910528F4FB
:103BD0008093050490E080E008958FEF9FEF0895B3
:103BE0004F925F926F927F92AF92BF92CF92DF928D
:103BF000EF92FF920F931F93CF93DF9300D0CDB737
:103C0000DEB71A821982009709F478C06115710530
:103C100009F474C0209127013091280107EF1FEFAC
:103C20002F3F3F4F09F444C06B015C01412C512CE4
:103C30003201F12CE12C10E000E09E012F5F3F4F9C
:103C4000A6014E195F09B5016E0D7F1D80912701F8
:103C50009091280147D4892B09F04AC089819A8123
:103C6000009741F4E114F10429F420910504222382
:103C700009F441C0E80EF91EEC14FD04C8F480E814
:103C8000481684E858068EE16806710418F560E06D
:103C900070E0CB01E0D52AE0420E511C611C711C82
:103CA0000A3F4FEF140721F0043F8FEF1807A1F4EC
:103CB000C8010F900F90DF91CF911F910F91FF904E
:103CC000EF90DF90CF90BF90AF907F906F905F901C
:103CD0004F90089501EF1FEF81E090E0013F2FEF3B
:103CE000120711F090E080E0892B09F4A6CFE0CF15
:103CF00004EF1FEFDDCF0AEF1FEFDACF0FEF1FEF5B
:103D0000D7CF4F925F926F927F92AF92BF92CF9236
:103D1000DF92EF92FF920F931F93CF93DF9300D028
:103D2000CDB7DEB71A821982009709F478C0611501
:103D3000710509F474C0209127013091280107EF23
:103D40001FEF2F3F3F4F09F444C06B015C01412C32
:103D5000512C3201F12CE12C10E000E09E012F5F8C
:103D60003F4FA6014E195F09B5016E0D7F1D809171
:103D70002701909128016CD3892B09F04AC08981D1
:103D80009A81009741F4E114F10429F4209105048B
:103D9000222309F441C0E80EF91EEC14FD04C8F416
:103DA00080E4481682E458068FE06806710418F52E
:103DB00060E070E0CB014FD52AE0420E511C611C3F
:103DC000711C0E3F4FEF140721F0043F8FEF1807CF
:103DD000A1F4C8010F900F90DF91CF911F910F9127
:103DE000FF90EF90DF90CF90BF90AF907F906F905B
:103DF0005F904F90089502EF1FEF81E090E0023F47
:103E00002FEF120711F090E080E0892B09F4A6CF84
:103E1000E0CF04EF1FEFDDCF0EEF1FEFDACF0FEF94
:103E20001FEFD7CF80912701909128018F3F9807EE
:103E300049F0F1D2892B49F48FEF9FEF909328013D
:103E40008093270190E080E0089584EF9FEF08952C
:103E5000CF92DF92EF92FF920F931F93CF93DF9356
:103E600021E04115510509F020E04150510921118F
:103E70002CC0DC01FB01D12CC12C21E022C03FEF82
:103E8000C31AD30A7D010D911D91E701EA80FB80E1
:103E9000E016F106A8F420813181E280F380F182FE
:103EA000E08233832283ED90FC9011979D01225094
:103EB0003109E901F982E88211961C930E9320E002
:103EC0003296C416D506D8F2D2CFDF91CF911F918A
:103ED0000F91FF90EF90DF90CF900895FC01680F55
:103EE000791F90E080E0E617F70709F40895219123
:103EF000820F911DF8CF20910604211113C049DED5
:103F0000009791F410920C0410920B0410920A0482
:103F100010920904109208041092070421E02093E3
:103F20000604089584EF9FEF0895AF92BF92CF9259
:103F3000DF92EF92FF920F931F93CF93DF9300973F
:103F400009F460C04630510508F45CC020910604B5
:103F5000C7EFDFEF222309F449C08C01060F171FBA
:103F6000F801C080D180C114D10409F44EC096017B
:103F70002A5F3F4F4217530708F447C07C018091E6
:103F80000B0490910C0493838283B6016C5F7F4F86
:103F90005801A60EB71EC801A1DFF50191838083E9
:103FA00064E070E0C8011CDEEC01892BF9F481E0CB
:103FB00090E00BDEB601C801049612DEEC01892BFD
:103FC00091F462E070E0C5010BDEEC01892B59F43D
:103FD000C701E0DB80910B0490910C040196909353
:103FE0000C0480930B0490E080E0EFDDCE01DF91C4
:103FF000CF911F910F91FF90EF90DF90CF90BF90E6
:10400000AF900895CFEFDFEFF1CFC9EFDFEFEECF45
:104010006F927F928F929F92AF92BF92CF92DF92D8
:10402000EF92FF920F931F93CF93DF9300D000D0B6
:10403000CDB7DEB7009709F479C04115510509F4F1
:1040400075C02091060407EF1FEF222309F44CC02E
:104050003A017B015C0164E070E0CE01019651DE23
:104060008C01892B09F040C009811A8101151105C5
:1040700009F459C0480186E0880E911CB701680D0B
:10408000791D8091290190912A0110DD6C01009722
:1040900009F44FC0A70170E060E0DFD689819A8102
:1040A000AB81BC81EC0CFD1CF70181939193A19332
:1040B000B1937F0181E090E088DDB801C70121DE86
:1040C000892B31F562E070E0C701800F911F19DE86
:1040D0008C01892BE9F490E080E077DDF501D18255
:1040E000C082F30191828082C8010F900F900F90DF
:1040F0000F90DF91CF911F910F91FF90EF90DF9084
:10410000CF90BF90AF909F908F907F906F900895C9
:1041100090E080E05ADDF50111821082F3011182F6
:104120001082C60137DB09EF1FEFDECF0FEF1FEF65
:10413000DBCF06EF1FEFD8CF0097A1F04115510557
:1041400089F02115310571F0F90136966E177F0758
:1041500048F0DC012D933C93DA01ED93FC9390E061
:1041600080E008958FEF9FEF0895AF92BF92CF92B6
:10417000DF92EF92FF920F931F93CF93DF930097FD
:1041800009F45FC04115510509F45BC06530710544
:1041900008F457C020910604C7EFDFEF222391F106
:1041A000DC01CD90DC9011971296ED91FC91960177
:1041B0002A5F3F4FC9EFDFEF2617370719F5C09188
:1041C0000704D0910804209749F521E030E03093AE
:1041D0000804209307047A018C01F0930A04E09309
:1041E00009045601B4E0AB0EB11CB50177DE0A0D2F
:1041F0001B1DF801208131818217930729F5D70112
:10420000CD92DC92CE01DF91CF911F910F91FF9063
:10421000EF90DF90CF90BF90AF9008952091090468
:1042200030910A042F5F3F4FCCEFDFEFE217F30727
:1042300090F2CBEFDFEF2E173F0768F2D0E0C0E03F
:10424000CACFCFEFDFEFDECFC3EFDFEFDBCF84E00E
:1042500090E0089582E090E008958CEF9FEF08953C
:1042600080E290E0089510920C0410920B041092DA
:104270000A0410920904109208041092070490E0B6
:1042800080E0089590932A018093290108958091F8
:104290000604882391F0C6DD009789F410920C047F
:1042A00010920B0410920A04109209041092080450
:1042B0001092070410920604089590E080E008959B
:1042C000009749F06115710531F0FC0111821082EF
:1042D000FB01118210820895F3CF089526E030E0AB
:1042E00040E855E260E070E090E080E000C01092AD
:1042F0000E0410920D0489309105E0F48E579E4D06
:10430000FC0183C58B2194219B219E21A121A42105
:10431000A721AA21B02181E090E090930E04809320
:104320000D048FE194E029C482E090E090930E04A4
:1043300080930D04089584E090E0F8CF88E090E049
:10434000F5CF80E190E0F2CF80E290E0EFCF80E423
:1043500090E0ECCF80E890E090930E0480930D0401
:1043600080910D0490910E049160E0CF1F920F9206
:104370000FB60F9211242F933F934F935F936F9338
:104380007F938F939F93AF93BF93EF93FF9387EEAA
:104390009FEF9093850080938400B7D0FF91EF91B9
:1043A000BF91AF919F918F917F916F915F914F914D
:1043B0003F912F910F900FBE0F901F90189587EE91
:1043C0009FEF9093850080938400AFE6B0E08C91DE
:1043D0008E7F8C93E0E8F0E080818C7F8083E1E841
:1043E000F0E08081877E808380818360808380810C
:1043F0008B7F80838C9181608C930895EFE6F0E051
:10440000808190819E7F90838170089581E00895DE
:1044100010920F04089568EE73E080E090E01BD2E4
:1044200090E080E0089526E030E040E052EC61E06A
:1044300070E090E080E05BDF8FE194E0D4D2892BE4
:1044400021F08FE194E0E9D2F7CF90E080E0089589
:10445000CF92DF92EF92FF920F931F93CF93DF9350
:104460006B017A01E901198218828FE194E0BBD2D5
:10447000892B69F18601CC24C39482E0D82E8091E7
:104480000F04811110C08FE194E0C7D20297B9F7F1
:10449000C0920F04F801D1928F0188819981019611
:1044A00099838883ECCF888199818E159F0578F454
:1044B0008FE194E0B2D28F3F9807A9F3F80181937E
:1044C0008F0188819981019699838883ECCF90E050
:1044D00080E0DF91CF911F910F91FF90EF90DF90DF
:1044E000CF9008950F931F93CF93DF93EA01890133
:1044F0008FE194E026D4F801D183C08390E080E07E
:10450000DF91CF911F910F910895CF92DF92EF929B
:10451000FF920F931F93CF93DF9300D0CDB7DEB7F9
:104520008091120491E0980F90931204882399F0DF
:1045300021E030E03093150420931404809312049A
:104540000F900F90DF91CF911F910F91FF90EF90FF
:10455000DF90CF900895CE0101960E948802789452
:1045600000912D0110912E01F801C688D788E08CAA
:10457000F18C0E949002B701A60190E080E00E94B9
:10458000FB01F894809112048150809312048A8177
:10459000882389F08091110491E0980F9093110481
:1045A000882349F021E030E030931504209314046F
:1045B00080931104C5CF80911104882309F4C0CFE2
:1045C000809113048111BCCF81E08093130478940F
:1045D000F801228D338D448D558DA1E2B0E02AD4AF
:1045E0006B017C010E94AE02B701A60181E090E060
:1045F0000E94FB01F8948091110481508093110472
:10460000809113048150809313049ACF0F931F93CA
:10461000CF93DF931092C9041092C80452D15EDE8A
:10462000C0912D01D0912E011982188268E278E89C
:1046300084E090E00E947D0270E060E090E080E025
:104640000E94FF00009709F03AC00E94E402F8942B
:1046500078948A819B81BC01685F7F4F0E94020130
:10466000892B59F46FEF7FEFCB010E9492010E94DA
:104670007702882311F081E08CA3F894A0DE0E94D9
:104680007A02882311F080E008C00E94770281112D
:10469000FACF81E09CA19111F6CF8093C804789461
:1046A0000E9488098C0178948091C80481110CC003
:1046B0000E944C030E945D02F89490E080E0DF913C
:1046C000CF911F910F9108950E945B020E947A0280
:1046D0008823E1F081E08093C9049091C90481E0CE
:1046E000911180E08093C8048091C904811186DE15
:1046F0000130110529F40E948809892B09F488DE0C
:104700000E9488098C0182DEE8DDCECF0E9477020C
:104710008111E0CF81E09CA19111DDCF80E0DBCF62
:1047200003D008F481E00895990F0008550FAA0BF3
:10473000E0E8FEEF16161706E807F907C0F01216B4
:104740001306E407F50798F0621B730B840B950BB7
:1047500039F40A2661F0232B242B252B21F408950C
:104760000A2609F4A140A6958FEF811D811D0895A9
:10477000DBDF08F48FEF08951F920F920FB60F92B0
:1047800011242F933F938F939F93AF93BF93809167
:10479000170490911804A0911904B0911A04309153
:1047A000160423E0230F2D3758F50196A11DB11DE6
:1047B000209316048093170490931804A09319046F
:1047C000B0931A0480911B0490911C04A0911D04C5
:1047D000B0911E040196A11DB11D80931B049093FE
:1047E0001C04A0931D04B0931E04BF91AF919F9130
:1047F0008F913F912F910F900FBE0F901F901895A2
:1048000026E8230F0296A11DB11DD2CF3FB7F89421
:1048100080911B0490911C04A0911D04B0911E0472
:1048200026B5A89B05C02F3F19F00196A11DB11D0B
:104830003FBFBA2FA92F982F8827BC01CD01620F47
:10484000711D811D911D42E0660F771F881F991F02
:104850004A95D1F708958F929F92AF92BF92CF92CF
:10486000DF92EF92FF926B017C01D0DF4B015C0184
:10487000C114D104E104F104D9F090D2C7DF681962
:1048800079098A099B09683E73408105910580F387
:1048900021E0C21AD108E108F10888EE880E83E011
:1048A000981EA11CB11CC114D104E104F10431F71C
:1048B000FF90EF90DF90CF90BF90AF909F908F9040
:1048C0000895789484B5826084BD84B5816084BD88
:1048D00085B5826085BD85B5816085BDEEE6F0E079
:1048E000808181608083E1E8F0E0108280818260D5
:1048F0008083808181608083E0E8F0E08081816056
:104900008083E1EBF0E0808184608083E0EBF0E085
:10491000808181608083EAE7F0E080818460808329
:1049200080818260808380818160808380818068D3
:1049300080831092C10008958E3008F08E5020912F
:104940002B0190E4299F900111248770822B809382
:104950007C0080917A00806480937A0080917A0054
:1049600086FDFCCF80917800909179000895CF93D7
:10497000DF9390E0FC01E859FF4F249184589F4F4A
:10498000FC0184918823C9F090E0880F991FFC01F5
:10499000E656FF4FA591B491FC01E057FF4FC5913A
:1049A000D49161110DC09FB7F8948C91209582230A
:1049B0008C938881282328839FBFDF91CF9108950E
:1049C000623051F49FB7F8943C91822F80958323F5
:1049D0008C93E8812E2BEFCF8FB7F894EC912E2B90
:1049E0002C938FBFEACFFC01918D228D892F90E00F
:1049F000805C9F4F821B91098F7399270895FC015A
:104A0000918D828D981731F0828DE80FF11D858D83
:104A100090E008958FEF9FEF0895FC01918D828DB6
:104A2000981761F0A28DAE0FBF2FB11D5D968C91CE
:104A3000928D9F5F9F73928F90E008958FEF9FEF0D
:104A40000895FC01538D448D252F30E0842F90E094
:104A5000821B930B541710F0CF9608950197089579
:104A6000FC01A48DA80FB92FB11DA35ABF4F2C91E3
:104A7000848D90E001968F739927848FA689B789DA
:104A80002C93A089B1898C91837080648C93938DD1
:104A9000848D981306C00288F389E02D80818F7D74
:104AA00080830895CF93DF93EC01888D8823B1F044
:104AB000AA89BB89E889F9898C9185FD03C0808129
:104AC00086FD0CC00FB607FCF7CF8C9185FFF2CFA7
:104AD000808185FFEDCFCE01C3DFEACFDF91CF919B
:104AE0000895EF92FF920F931F93CF93DF93EC0102
:104AF00081E0888F9B8D8C8D98131AC0E889F98985
:104B0000808185FF15C09FB7F894EE89FF89608387
:104B1000E889F98980818370806480839FBF81E008
:104B200090E0DF91CF911F910F91FF90EF9008954A
:104B3000F62E0B8D10E00F5F1F4F0F731127E02E25
:104B40008C8D8E110BC00FB607FCFACFE889F9895E
:104B5000808185FFF5CFCE0183DFF2CFEB8DEC0FA7
:104B6000FD2FF11DE35AFF4FF0829FB7F8940B8F92
:104B7000EA89FB8980818062D0CFCF92DF92EF9269
:104B8000FF921F93CF93DF93EC016A017B01122FF9
:104B9000E889F98982E08083C11481EED806E104B6
:104BA000F10499F060E079E08DE390E0A7019601CF
:104BB0000AD1215031094109510956954795379538
:104BC0002795211580E1380790F0E889F98910824E
:104BD00060E874E88EE190E0A7019601F4D02150DE
:104BE0003109410951095695479537952795EC8527
:104BF000FD853083EE85FF852083188EEC89FD8945
:104C00001083EA89FB89808180618083EA89FB893E
:104C1000808188608083EA89FB89808180688083C5
:104C2000EA89FB8980818F7D8083DF91CF911F91FD
:104C3000FF90EF90DF90CF9008951F920F920FB6E4
:104C40000F9211242F938F939F93EF93FF93E091F3
:104C50002F04F09130048081E0913504F091360406
:104C600082FD1BC09081809138048F5F8F732091EB
:104C70003904821741F0E0913804F0E0E15EFB4F27
:104C8000958F80933804FF91EF919F918F912F9191
:104C90000F900FBE0F901F9018958081F4CF1F9238
:104CA0000F920FB60F9211242F933F934F935F9360
:104CB0006F937F938F939F93AF93BF93EF93FF93E4
:104CC0008FE194E0CDDEFF91EF91BF91AF919F9185
:104CD0008F917F916F915F914F913F912F910F90A5
:104CE0000FBE0F901F901895EFE1F4E0138212822F
:104CF00088EE93E0A0E0B0E084839583A683B78339
:104D000087EB91E09183808385EC90E095878487A1
:104D100084EC90E09787868780EC90E0918B808B85
:104D200081EC90E0938B828B82EC90E0958B848B6E
:104D300086EC90E0978B868B118E128E138E148EDC
:104D40000895AF92BF92CF92DF92EF92FF920F93AE
:104D50001F93CF93DF936C017B018B01040F151F11
:104D6000EB015E01AE18BF08C017D10759F0699179
:104D7000D601ED91FC910190F081E02DC6010995DD
:104D8000892B79F7C501DF91CF911F910F91FF908A
:104D9000EF90DF90CF90BF90AF9008950895AA1B39
:104DA000BB1B51E107C0AA1FBB1FA617B70710F016
:104DB000A61BB70B881F991F5A95A9F78095909548
:104DC000BC01CD010895A1E21A2EAA1BBB1BFD0157
:104DD0000DC0AA1FBB1FEE1FFF1FA217B307E407DA
:104DE000F50720F0A21BB30BE40BF50B661F771F32
:104DF000881F991F1A9469F7609570958095909512
:104E00009B01AC01BD01CF010895EE0FFF1F05907E
:104E1000F491E02D0994A29FB001B39FC001A39F1C
:104E2000700D811D1124911DB29F700D811D1124E3
:104E3000911D0895F0DFA59F900DB49F900DA49F44
:104E4000800D911D11240895FB01DC0102C0019029
:104E50000D9241505040D8F70895DC0101C06D9388
:0C4E600041505040E0F70895F894FFCF57
:104E6C00679CFEFFFFFF01E8030000FFFF0000004E
:104E7C0000FFFFFFFFFFFFFFFFFFFF01000100012D
:104E8C0000200038000800FFFFFFFF0101E301FFD5
:104E9C0000DF0B0B0CFE00C50B4309FD00570BB1DB
:104EAC000BFC009D0B4309F6008E0C4309F50064C6
:104EBC000BCD0CF400570CE40CDE001211AC13DD1E
:104ECC000081124309DA00B40EBC0ED900C713CC12
:104EDC000EE2009C0D4309E100D70D4309E0004CA4
:104EEC000E4309D600AB174309D50061104309D412
:104EFC0000ED0F4309D3005E0F4309DC00DB0E43CA
:104F0C0009C000E30E4309F00014184309ED00D169
:104F1C00174309000000007125A12621255225F315
:064F2C00240D25FF240006
:00000001FF
